{
  "_format": "hh-sol-artifact-1",
  "contractName": "EstateRegistry",
  "sourceName": "contracts/estate/EstateRegistry.sol",
  "abi": [
    {
      "anonymous": false,
      "inputs": [
        {
          "indexed": true,
          "internalType": "address",
          "name": "owner",
          "type": "address"
        },
        {
          "indexed": true,
          "internalType": "address",
          "name": "approved",
          "type": "address"
        },
        {
          "indexed": true,
          "internalType": "uint256",
          "name": "tokenId",
          "type": "uint256"
        }
      ],
      "name": "Approval",
      "type": "event"
    },
    {
      "anonymous": false,
      "inputs": [
        {
          "indexed": true,
          "internalType": "address",
          "name": "owner",
          "type": "address"
        },
        {
          "indexed": true,
          "internalType": "address",
          "name": "operator",
          "type": "address"
        },
        {
          "indexed": false,
          "internalType": "bool",
          "name": "approved",
          "type": "bool"
        }
      ],
      "name": "ApprovalForAll",
      "type": "event"
    },
    {
      "anonymous": false,
      "inputs": [
        {
          "indexed": false,
          "internalType": "uint256",
          "name": "estateID",
          "type": "uint256"
        },
        {
          "indexed": false,
          "internalType": "address",
          "name": "owner",
          "type": "address"
        }
      ],
      "name": "EstateMinted",
      "type": "event"
    },
    {
      "anonymous": false,
      "inputs": [
        {
          "indexed": false,
          "internalType": "uint256",
          "name": "estateID",
          "type": "uint256"
        },
        {
          "indexed": false,
          "internalType": "address",
          "name": "from",
          "type": "address"
        },
        {
          "indexed": false,
          "internalType": "address",
          "name": "to",
          "type": "address"
        }
      ],
      "name": "EstateTransfered",
      "type": "event"
    },
    {
      "anonymous": false,
      "inputs": [
        {
          "indexed": false,
          "internalType": "uint8",
          "name": "version",
          "type": "uint8"
        }
      ],
      "name": "Initialized",
      "type": "event"
    },
    {
      "anonymous": false,
      "inputs": [
        {
          "indexed": false,
          "internalType": "address",
          "name": "landRegistryAddr",
          "type": "address"
        }
      ],
      "name": "LandRegistryUpdated",
      "type": "event"
    },
    {
      "anonymous": false,
      "inputs": [
        {
          "indexed": false,
          "internalType": "uint256",
          "name": "landID",
          "type": "uint256"
        },
        {
          "indexed": false,
          "internalType": "uint256",
          "name": "estateID",
          "type": "uint256"
        },
        {
          "indexed": false,
          "internalType": "address",
          "name": "from",
          "type": "address"
        },
        {
          "indexed": false,
          "internalType": "address",
          "name": "to",
          "type": "address"
        }
      ],
      "name": "LandRemovedFromEstate",
      "type": "event"
    },
    {
      "anonymous": false,
      "inputs": [
        {
          "indexed": false,
          "internalType": "address",
          "name": "from",
          "type": "address"
        },
        {
          "indexed": false,
          "internalType": "uint256",
          "name": "landID",
          "type": "uint256"
        },
        {
          "indexed": false,
          "internalType": "uint256",
          "name": "estateID",
          "type": "uint256"
        }
      ],
      "name": "LandTransferedToRegistry",
      "type": "event"
    },
    {
      "anonymous": false,
      "inputs": [
        {
          "indexed": true,
          "internalType": "address",
          "name": "from",
          "type": "address"
        },
        {
          "indexed": true,
          "internalType": "address",
          "name": "to",
          "type": "address"
        },
        {
          "indexed": true,
          "internalType": "uint256",
          "name": "tokenId",
          "type": "uint256"
        }
      ],
      "name": "Transfer",
      "type": "event"
    },
    {
      "inputs": [
        {
          "internalType": "address",
          "name": "owner",
          "type": "address"
        }
      ],
      "name": "addOwner",
      "outputs": [],
      "stateMutability": "nonpayable",
      "type": "function"
    },
    {
      "inputs": [
        {
          "internalType": "address",
          "name": "to",
          "type": "address"
        },
        {
          "internalType": "uint256",
          "name": "tokenId",
          "type": "uint256"
        }
      ],
      "name": "approve",
      "outputs": [],
      "stateMutability": "nonpayable",
      "type": "function"
    },
    {
      "inputs": [
        {
          "internalType": "address",
          "name": "owner",
          "type": "address"
        }
      ],
      "name": "balanceOf",
      "outputs": [
        {
          "internalType": "uint256",
          "name": "",
          "type": "uint256"
        }
      ],
      "stateMutability": "view",
      "type": "function"
    },
    {
      "inputs": [
        {
          "internalType": "uint256",
          "name": "estateID",
          "type": "uint256"
        }
      ],
      "name": "estateOwner",
      "outputs": [
        {
          "internalType": "address",
          "name": "",
          "type": "address"
        }
      ],
      "stateMutability": "view",
      "type": "function"
    },
    {
      "inputs": [
        {
          "internalType": "address",
          "name": "sendTo",
          "type": "address"
        },
        {
          "internalType": "address",
          "name": "token",
          "type": "address"
        },
        {
          "internalType": "uint256",
          "name": "value",
          "type": "uint256"
        }
      ],
      "name": "extractERC20Token",
      "outputs": [],
      "stateMutability": "nonpayable",
      "type": "function"
    },
    {
      "inputs": [
        {
          "internalType": "address payable",
          "name": "sendTo",
          "type": "address"
        },
        {
          "internalType": "uint256",
          "name": "value",
          "type": "uint256"
        }
      ],
      "name": "extractETH",
      "outputs": [],
      "stateMutability": "nonpayable",
      "type": "function"
    },
    {
      "inputs": [
        {
          "internalType": "uint256",
          "name": "tokenId",
          "type": "uint256"
        }
      ],
      "name": "getApproved",
      "outputs": [
        {
          "internalType": "address",
          "name": "",
          "type": "address"
        }
      ],
      "stateMutability": "view",
      "type": "function"
    },
    {
      "inputs": [
        {
          "internalType": "address",
          "name": "landRegistryAddr",
          "type": "address"
        }
      ],
      "name": "initialize",
      "outputs": [],
      "stateMutability": "payable",
      "type": "function"
    },
    {
      "inputs": [
        {
          "internalType": "address",
          "name": "owner",
          "type": "address"
        },
        {
          "internalType": "address",
          "name": "operator",
          "type": "address"
        }
      ],
      "name": "isApprovedForAll",
      "outputs": [
        {
          "internalType": "bool",
          "name": "",
          "type": "bool"
        }
      ],
      "stateMutability": "view",
      "type": "function"
    },
    {
      "inputs": [
        {
          "internalType": "address",
          "name": "check",
          "type": "address"
        }
      ],
      "name": "isOwner",
      "outputs": [
        {
          "internalType": "bool",
          "name": "",
          "type": "bool"
        }
      ],
      "stateMutability": "view",
      "type": "function"
    },
    {
      "inputs": [
        {
          "internalType": "uint256",
          "name": "estateID",
          "type": "uint256"
        }
      ],
      "name": "landsInEstate",
      "outputs": [
        {
          "internalType": "int256[]",
          "name": "",
          "type": "int256[]"
        },
        {
          "internalType": "int256[]",
          "name": "",
          "type": "int256[]"
        }
      ],
      "stateMutability": "view",
      "type": "function"
    },
    {
      "inputs": [
        {
          "internalType": "address",
          "name": "to",
          "type": "address"
        }
      ],
      "name": "mintEstate",
      "outputs": [
        {
          "internalType": "uint256",
          "name": "",
          "type": "uint256"
        }
      ],
      "stateMutability": "nonpayable",
      "type": "function"
    },
    {
      "inputs": [],
      "name": "name",
      "outputs": [
        {
          "internalType": "string",
          "name": "",
          "type": "string"
        }
      ],
      "stateMutability": "view",
      "type": "function"
    },
    {
      "inputs": [
        {
          "internalType": "address",
          "name": "operator",
          "type": "address"
        },
        {
          "internalType": "address",
          "name": "from",
          "type": "address"
        },
        {
          "internalType": "uint256",
          "name": "tokenId",
          "type": "uint256"
        },
        {
          "internalType": "bytes",
          "name": "data",
          "type": "bytes"
        }
      ],
      "name": "onERC721Received",
      "outputs": [
        {
          "internalType": "bytes4",
          "name": "",
          "type": "bytes4"
        }
      ],
      "stateMutability": "pure",
      "type": "function"
    },
    {
      "inputs": [
        {
          "internalType": "address",
          "name": "from",
          "type": "address"
        },
        {
          "internalType": "uint256",
          "name": "landID",
          "type": "uint256"
        },
        {
          "internalType": "uint256",
          "name": "estateID",
          "type": "uint256"
        }
      ],
      "name": "onLandRecieved",
      "outputs": [
        {
          "internalType": "bool",
          "name": "",
          "type": "bool"
        }
      ],
      "stateMutability": "nonpayable",
      "type": "function"
    },
    {
      "inputs": [
        {
          "internalType": "uint256",
          "name": "tokenId",
          "type": "uint256"
        }
      ],
      "name": "ownerOf",
      "outputs": [
        {
          "internalType": "address",
          "name": "",
          "type": "address"
        }
      ],
      "stateMutability": "view",
      "type": "function"
    },
    {
      "inputs": [
        {
          "internalType": "address",
          "name": "owner",
          "type": "address"
        }
      ],
      "name": "revokeOwner",
      "outputs": [],
      "stateMutability": "nonpayable",
      "type": "function"
    },
    {
      "inputs": [
        {
          "internalType": "address",
          "name": "from",
          "type": "address"
        },
        {
          "internalType": "address",
          "name": "to",
          "type": "address"
        },
        {
          "internalType": "uint256",
          "name": "tokenId",
          "type": "uint256"
        }
      ],
      "name": "safeTransferFrom",
      "outputs": [],
      "stateMutability": "nonpayable",
      "type": "function"
    },
    {
      "inputs": [
        {
          "internalType": "address",
          "name": "from",
          "type": "address"
        },
        {
          "internalType": "address",
          "name": "to",
          "type": "address"
        },
        {
          "internalType": "uint256",
          "name": "tokenId",
          "type": "uint256"
        },
        {
          "internalType": "bytes",
          "name": "data",
          "type": "bytes"
        }
      ],
      "name": "safeTransferFrom",
      "outputs": [],
      "stateMutability": "nonpayable",
      "type": "function"
    },
    {
      "inputs": [
        {
          "internalType": "address",
          "name": "operator",
          "type": "address"
        },
        {
          "internalType": "bool",
          "name": "approved",
          "type": "bool"
        }
      ],
      "name": "setApprovalForAll",
      "outputs": [],
      "stateMutability": "nonpayable",
      "type": "function"
    },
    {
      "inputs": [
        {
          "internalType": "bytes4",
          "name": "interfaceId",
          "type": "bytes4"
        }
      ],
      "name": "supportsInterface",
      "outputs": [
        {
          "internalType": "bool",
          "name": "",
          "type": "bool"
        }
      ],
      "stateMutability": "view",
      "type": "function"
    },
    {
      "inputs": [],
      "name": "symbol",
      "outputs": [
        {
          "internalType": "string",
          "name": "",
          "type": "string"
        }
      ],
      "stateMutability": "view",
      "type": "function"
    },
    {
      "inputs": [
        {
          "internalType": "uint256",
          "name": "tokenId",
          "type": "uint256"
        }
      ],
      "name": "tokenURI",
      "outputs": [
        {
          "internalType": "string",
          "name": "",
          "type": "string"
        }
      ],
      "stateMutability": "view",
      "type": "function"
    },
    {
      "inputs": [
        {
          "internalType": "uint256",
          "name": "estateID",
          "type": "uint256"
        },
        {
          "internalType": "address",
          "name": "from",
          "type": "address"
        },
        {
          "internalType": "address",
          "name": "to",
          "type": "address"
        }
      ],
      "name": "transferEstate",
      "outputs": [
        {
          "internalType": "bool",
          "name": "",
          "type": "bool"
        }
      ],
      "stateMutability": "nonpayable",
      "type": "function"
    },
    {
      "inputs": [
        {
          "internalType": "address",
          "name": "from",
          "type": "address"
        },
        {
          "internalType": "address",
          "name": "to",
          "type": "address"
        },
        {
          "internalType": "uint256",
          "name": "tokenId",
          "type": "uint256"
        }
      ],
      "name": "transferFrom",
      "outputs": [],
      "stateMutability": "nonpayable",
      "type": "function"
    },
    {
      "inputs": [
        {
          "internalType": "uint256",
          "name": "landID",
          "type": "uint256"
        },
        {
          "internalType": "address",
          "name": "from",
          "type": "address"
        },
        {
          "internalType": "address",
          "name": "to",
          "type": "address"
        }
      ],
      "name": "transferLand",
      "outputs": [
        {
          "internalType": "bool",
          "name": "",
          "type": "bool"
        }
      ],
      "stateMutability": "nonpayable",
      "type": "function"
    },
    {
      "inputs": [
        {
          "internalType": "address",
          "name": "landRegistryAddr",
          "type": "address"
        }
      ],
      "name": "updateLandRegistry",
      "outputs": [],
      "stateMutability": "nonpayable",
      "type": "function"
    }
  ],
  "bytecode": "0x608060405234801561001057600080fd5b5033600660026101000a81548173ffffffffffffffffffffffffffffffffffffffff021916908373ffffffffffffffffffffffffffffffffffffffff1602179055506001600760003373ffffffffffffffffffffffffffffffffffffffff1673ffffffffffffffffffffffffffffffffffffffff16815260200190815260200160002060006101000a81548160ff021916908315150217905550614591806100b96000396000f3fe60806040526004361061019c5760003560e01c80637065cb48116100ec578063bdf1ee291161008a578063daa82a5611610064578063daa82a5614610638578063dae388e614610661578063e7f2d74e1461068a578063e985e9c5146106c75761019c565b8063bdf1ee29146105a2578063c4d66de8146105df578063c87b56dd146105fb5761019c565b8063a22cb465116100c6578063a22cb465146104d5578063b43ea37c146104fe578063b88d4fde1461053b578063bd716968146105645761019c565b80637065cb481461044457806370a082311461046d57806395d89b41146104aa5761019c565b80632f54bf6e116101595780634fc1fcc9116101335780634fc1fcc91461037857806362e14289146103a15780636352211e146103de5780636d1511011461041b5761019c565b80632f54bf6e146102d557806342842e0e1461031257806347649f561461033b5761019c565b806301ffc9a7146101a157806306fdde03146101de578063081812fc14610209578063095ea7b314610246578063150b7a021461026f57806323b872dd146102ac575b600080fd5b3480156101ad57600080fd5b506101c860048036038101906101c39190612ddd565b610704565b6040516101d59190612e25565b60405180910390f35b3480156101ea57600080fd5b506101f36107e6565b6040516102009190612ed9565b60405180910390f35b34801561021557600080fd5b50610230600480360381019061022b9190612f31565b610878565b60405161023d9190612f9f565b60405180910390f35b34801561025257600080fd5b5061026d60048036038101906102689190612fe6565b6108be565b005b34801561027b57600080fd5b506102966004803603810190610291919061308b565b6109d6565b6040516102a39190613122565b60405180910390f35b3480156102b857600080fd5b506102d360048036038101906102ce919061313d565b6109eb565b005b3480156102e157600080fd5b506102fc60048036038101906102f79190613190565b610a4b565b6040516103099190612e25565b60405180910390f35b34801561031e57600080fd5b506103396004803603810190610334919061313d565b610aa1565b005b34801561034757600080fd5b50610362600480360381019061035d91906131bd565b610ac1565b60405161036f9190612e25565b60405180910390f35b34801561038457600080fd5b5061039f600480360381019061039a9190613190565b610b69565b005b3480156103ad57600080fd5b506103c860048036038101906103c39190612f31565b610c6f565b6040516103d59190612f9f565b60405180910390f35b3480156103ea57600080fd5b5061040560048036038101906104009190612f31565b610c81565b6040516104129190612f9f565b60405180910390f35b34801561042757600080fd5b50610442600480360381019061043d9190613190565b610d33565b005b34801561045057600080fd5b5061046b60048036038101906104669190613190565b610e1e565b005b34801561047957600080fd5b50610494600480360381019061048f9190613190565b610f09565b6040516104a1919061321f565b60405180910390f35b3480156104b657600080fd5b506104bf610fc1565b6040516104cc9190612ed9565b60405180910390f35b3480156104e157600080fd5b506104fc60048036038101906104f79190613266565b611053565b005b34801561050a57600080fd5b50610525600480360381019061052091906132a6565b611069565b6040516105329190612e25565b60405180910390f35b34801561054757600080fd5b50610562600480360381019061055d9190613429565b6112e8565b005b34801561057057600080fd5b5061058b60048036038101906105869190612f31565b61134a565b604051610599929190613574565b60405180910390f35b3480156105ae57600080fd5b506105c960048036038101906105c49190613190565b611586565b6040516105d6919061321f565b60405180910390f35b6105f960048036038101906105f49190613190565b6116df565b005b34801561060757600080fd5b50610622600480360381019061061d9190612f31565b611919565b60405161062f9190612ed9565b60405180910390f35b34801561064457600080fd5b5061065f600480360381019061065a91906135e9565b611981565b005b34801561066d57600080fd5b506106886004803603810190610683919061313d565b611a58565b005b34801561069657600080fd5b506106b160048036038101906106ac91906132a6565b611c18565b6040516106be9190612e25565b60405180910390f35b3480156106d357600080fd5b506106ee60048036038101906106e99190613629565b611d35565b6040516106fb9190612e25565b60405180910390f35b60007f80ac58cd000000000000000000000000000000000000000000000000000000007bffffffffffffffffffffffffffffffffffffffffffffffffffffffff1916827bffffffffffffffffffffffffffffffffffffffffffffffffffffffff191614806107cf57507f5b5e139f000000000000000000000000000000000000000000000000000000007bffffffffffffffffffffffffffffffffffffffffffffffffffffffff1916827bffffffffffffffffffffffffffffffffffffffffffffffffffffffff1916145b806107df57506107de82611dc9565b5b9050919050565b6060606c80546107f590613698565b80601f016020809104026020016040519081016040528092919081815260200182805461082190613698565b801561086e5780601f106108435761010080835404028352916020019161086e565b820191906000526020600020905b81548152906001019060200180831161085157829003601f168201915b5050505050905090565b600061088382611e33565b6070600083815260200190815260200160002060009054906101000a900473ffffffffffffffffffffffffffffffffffffffff169050919050565b60006108c982610c81565b90508073ffffffffffffffffffffffffffffffffffffffff168373ffffffffffffffffffffffffffffffffffffffff16141561093a576040517f08c379a00000000000000000000000000000000000000000000000000000000081526004016109319061373c565b60405180910390fd5b8073ffffffffffffffffffffffffffffffffffffffff16610959611e7e565b73ffffffffffffffffffffffffffffffffffffffff161480610988575061098781610982611e7e565b611d35565b5b6109c7576040517f08c379a00000000000000000000000000000000000000000000000000000000081526004016109be906137ce565b60405180910390fd5b6109d18383611e86565b505050565b600063150b7a0260e01b905095945050505050565b6109fc6109f6611e7e565b82611f3f565b610a3b576040517f08c379a0000000000000000000000000000000000000000000000000000000008152600401610a3290613860565b60405180910390fd5b610a46838383611fd4565b505050565b6000600760008373ffffffffffffffffffffffffffffffffffffffff1673ffffffffffffffffffffffffffffffffffffffff16815260200190815260200160002060009054906101000a900460ff169050919050565b610abc838383604051806020016040528060008152506112e8565b505050565b60003373ffffffffffffffffffffffffffffffffffffffff1660008054906101000a900473ffffffffffffffffffffffffffffffffffffffff1673ffffffffffffffffffffffffffffffffffffffff1614610b1b57600080fd5b7f2005ca95e4d88b15bdd515cb2fc2ba6a754439f67d038763bc7cc82b01df1f90848484604051610b4e93929190613880565b60405180910390a1610b60838361223b565b90509392505050565b600760003373ffffffffffffffffffffffffffffffffffffffff1673ffffffffffffffffffffffffffffffffffffffff16815260200190815260200160002060009054906101000a900460ff16610bf5576040517f08c379a0000000000000000000000000000000000000000000000000000000008152600401610bec90613929565b60405180910390fd5b806000806101000a81548173ffffffffffffffffffffffffffffffffffffffff021916908373ffffffffffffffffffffffffffffffffffffffff1602179055507fecffb4012ef5b2e286a146ff6c274ba865ed81e04a3458f6245f4ec837e2992181604051610c649190612f9f565b60405180910390a150565b6000610c7a82610c81565b9050919050565b600080606e600084815260200190815260200160002060009054906101000a900473ffffffffffffffffffffffffffffffffffffffff169050600073ffffffffffffffffffffffffffffffffffffffff168173ffffffffffffffffffffffffffffffffffffffff161415610d2a576040517f08c379a0000000000000000000000000000000000000000000000000000000008152600401610d2190613995565b60405180910390fd5b80915050919050565b600660029054906101000a900473ffffffffffffffffffffffffffffffffffffffff1673ffffffffffffffffffffffffffffffffffffffff163373ffffffffffffffffffffffffffffffffffffffff1614610dc3576040517f08c379a0000000000000000000000000000000000000000000000000000000008152600401610dba90613a27565b60405180910390fd5b6000600760008373ffffffffffffffffffffffffffffffffffffffff1673ffffffffffffffffffffffffffffffffffffffff16815260200190815260200160002060006101000a81548160ff02191690831515021790555050565b600660029054906101000a900473ffffffffffffffffffffffffffffffffffffffff1673ffffffffffffffffffffffffffffffffffffffff163373ffffffffffffffffffffffffffffffffffffffff1614610eae576040517f08c379a0000000000000000000000000000000000000000000000000000000008152600401610ea590613a27565b60405180910390fd5b6001600760008373ffffffffffffffffffffffffffffffffffffffff1673ffffffffffffffffffffffffffffffffffffffff16815260200190815260200160002060006101000a81548160ff02191690831515021790555050565b60008073ffffffffffffffffffffffffffffffffffffffff168273ffffffffffffffffffffffffffffffffffffffff161415610f7a576040517f08c379a0000000000000000000000000000000000000000000000000000000008152600401610f7190613ab9565b60405180910390fd5b606f60008373ffffffffffffffffffffffffffffffffffffffff1673ffffffffffffffffffffffffffffffffffffffff168152602001908152602001600020549050919050565b6060606d8054610fd090613698565b80601f0160208091040260200160405190810160405280929190818152602001828054610ffc90613698565b80156110495780601f1061101e57610100808354040283529160200191611049565b820191906000526020600020905b81548152906001019060200180831161102c57829003601f168201915b5050505050905090565b61106561105e611e7e565b83836122f9565b5050565b60008273ffffffffffffffffffffffffffffffffffffffff163373ffffffffffffffffffffffffffffffffffffffff16146110a357600080fd5b60008060008054906101000a900473ffffffffffffffffffffffffffffffffffffffff1673ffffffffffffffffffffffffffffffffffffffff1663aab40f40876040518263ffffffff1660e01b81526004016110ff919061321f565b604080518083038186803b15801561111657600080fd5b505afa15801561112a573d6000803e3d6000fd5b505050506040513d601f19601f8201168201806040525081019061114e9190613b05565b915091506000600560008881526020019081526020016000205490508573ffffffffffffffffffffffffffffffffffffffff1661118a82610c81565b73ffffffffffffffffffffffffffffffffffffffff16146111e0576040517f08c379a00000000000000000000000000000000000000000000000000000000081526004016111d790613bb7565b60405180910390fd5b60008054906101000a900473ffffffffffffffffffffffffffffffffffffffff1673ffffffffffffffffffffffffffffffffffffffff1663f9d7273f848430896040518563ffffffff1660e01b815260040161123f9493929190613be6565b602060405180830381600087803b15801561125957600080fd5b505af115801561126d573d6000803e3d6000fd5b505050506040513d601f19601f820116820180604052508101906112919190613c40565b5061129c8782612466565b507f2041ad06f18d7fd786af1bf262608cd095b45c5ee4702e5792300bd387bf1dfc878288886040516112d29493929190613c6d565b60405180910390a1600193505050509392505050565b6112f96112f3611e7e565b83611f3f565b611338576040517f08c379a000000000000000000000000000000000000000000000000000000000815260040161132f90613860565b60405180910390fd5b61134484848484612599565b50505050565b6060806000600360008581526020019081526020016000208054806020026020016040519081016040528092919081815260200182805480156113ac57602002820191906000526020600020905b815481526020019060010190808311611398575b505050505090506000815167ffffffffffffffff8111156113d0576113cf6132fe565b5b6040519080825280602002602001820160405280156113fe5781602001602082028036833780820191505090505b5090506000825167ffffffffffffffff81111561141e5761141d6132fe565b5b60405190808252806020026020018201604052801561144c5781602001602082028036833780820191505090505b50905060005b83518110156115775760008060008054906101000a900473ffffffffffffffffffffffffffffffffffffffff1673ffffffffffffffffffffffffffffffffffffffff1663aab40f408785815181106114ad576114ac613cb2565b5b60200260200101516040518263ffffffff1660e01b81526004016114d1919061321f565b604080518083038186803b1580156114e857600080fd5b505afa1580156114fc573d6000803e3d6000fd5b505050506040513d601f19601f820116820180604052508101906115209190613b05565b915091508185848151811061153857611537613cb2565b5b6020026020010181815250508084848151811061155857611557613cb2565b5b60200260200101818152505050508061157090613d10565b9050611452565b50818194509450505050915091565b6000600760003373ffffffffffffffffffffffffffffffffffffffff1673ffffffffffffffffffffffffffffffffffffffff16815260200190815260200160002060009054906101000a900460ff16611614576040517f08c379a000000000000000000000000000000000000000000000000000000000815260040161160b90613929565b60405180910390fd5b611620826002546125f5565b8160016000600254815260200190815260200160002060006101000a81548173ffffffffffffffffffffffffffffffffffffffff021916908373ffffffffffffffffffffffffffffffffffffffff1602179055507f321b4a2030939b0e98e75f8300809c0b9aaea3baa5126d04eff10232f5e74665600254836040516116a7929190613d59565b60405180910390a16001600260008282546116c29190613d82565b9250508190555060016002546116d89190613dd8565b9050919050565b600760003373ffffffffffffffffffffffffffffffffffffffff1673ffffffffffffffffffffffffffffffffffffffff16815260200190815260200160002060009054906101000a900460ff1661176b576040517f08c379a000000000000000000000000000000000000000000000000000000000815260040161176290613929565b60405180910390fd5b6000600660019054906101000a900460ff1615905080801561179f57506001600660009054906101000a900460ff1660ff16105b806117ce57506117ae30612613565b1580156117cd57506001600660009054906101000a900460ff1660ff16145b5b61180d576040517f08c379a000000000000000000000000000000000000000000000000000000000815260040161180490613e7e565b60405180910390fd5b6001600660006101000a81548160ff021916908360ff160217905550801561184b576001600660016101000a81548160ff0219169083151502179055505b6118736040518060200160405280600081525060405180602001604052806000815250612636565b6001600281905550816000806101000a81548173ffffffffffffffffffffffffffffffffffffffff021916908373ffffffffffffffffffffffffffffffffffffffff1602179055508015611915576000600660016101000a81548160ff0219169083151502179055507f7f26b83ff96e1f2b6a682f133852f6798a09c465da95921460cefb3847402498600160405161190c9190613ef0565b60405180910390a15b5050565b606061192482611e33565b600061192e612693565b9050600081511161194e5760405180602001604052806000815250611979565b80611958846126aa565b604051602001611969929190613f47565b6040516020818303038152906040525b915050919050565b600760003373ffffffffffffffffffffffffffffffffffffffff1673ffffffffffffffffffffffffffffffffffffffff16815260200190815260200160002060009054906101000a900460ff16611a0d576040517f08c379a0000000000000000000000000000000000000000000000000000000008152600401611a0490613929565b60405180910390fd5b8173ffffffffffffffffffffffffffffffffffffffff166108fc829081150290604051600060405180830381858888f19350505050158015611a53573d6000803e3d6000fd5b505050565b600760003373ffffffffffffffffffffffffffffffffffffffff1673ffffffffffffffffffffffffffffffffffffffff16815260200190815260200160002060009054906101000a900460ff16611ae4576040517f08c379a0000000000000000000000000000000000000000000000000000000008152600401611adb90613929565b60405180910390fd5b6000808373ffffffffffffffffffffffffffffffffffffffff16308685604051602401611b1393929190613f6b565b6040516020818303038152906040527f23b872dd000000000000000000000000000000000000000000000000000000007bffffffffffffffffffffffffffffffffffffffffffffffffffffffff19166020820180517bffffffffffffffffffffffffffffffffffffffffffffffffffffffff8381831617835250505050604051611b9d9190613fe9565b6000604051808303816000865af19150503d8060008114611bda576040519150601f19603f3d011682016040523d82523d6000602084013e611bdf565b606091505b509150915081611bee57600080fd5b600081806020019051810190611c049190613c40565b905080611c1057600080fd5b505050505050565b60008273ffffffffffffffffffffffffffffffffffffffff163373ffffffffffffffffffffffffffffffffffffffff1614611c5257600080fd5b8273ffffffffffffffffffffffffffffffffffffffff16611c7285610c81565b73ffffffffffffffffffffffffffffffffffffffff1614611c9257600080fd5b611c9d8383866109eb565b816001600086815260200190815260200160002060006101000a81548173ffffffffffffffffffffffffffffffffffffffff021916908373ffffffffffffffffffffffffffffffffffffffff1602179055507f0d2f0c896bd8b321ccd411fa062f6c608ab38713fcbd7b499db7ae8334bbeff1848484604051611d2293929190614000565b60405180910390a1600190509392505050565b6000607160008473ffffffffffffffffffffffffffffffffffffffff1673ffffffffffffffffffffffffffffffffffffffff16815260200190815260200160002060008373ffffffffffffffffffffffffffffffffffffffff1673ffffffffffffffffffffffffffffffffffffffff16815260200190815260200160002060009054906101000a900460ff16905092915050565b60007f01ffc9a7000000000000000000000000000000000000000000000000000000007bffffffffffffffffffffffffffffffffffffffffffffffffffffffff1916827bffffffffffffffffffffffffffffffffffffffffffffffffffffffff1916149050919050565b611e3c8161280b565b611e7b576040517f08c379a0000000000000000000000000000000000000000000000000000000008152600401611e7290613995565b60405180910390fd5b50565b600033905090565b816070600083815260200190815260200160002060006101000a81548173ffffffffffffffffffffffffffffffffffffffff021916908373ffffffffffffffffffffffffffffffffffffffff160217905550808273ffffffffffffffffffffffffffffffffffffffff16611ef983610c81565b73ffffffffffffffffffffffffffffffffffffffff167f8c5be1e5ebec7d5bd14f71427d1e84f3dd0314c0f7b2291e5b200ac8c7c3b92560405160405180910390a45050565b600080611f4b83610c81565b90508073ffffffffffffffffffffffffffffffffffffffff168473ffffffffffffffffffffffffffffffffffffffff161480611f8d5750611f8c8185611d35565b5b80611fcb57508373ffffffffffffffffffffffffffffffffffffffff16611fb384610878565b73ffffffffffffffffffffffffffffffffffffffff16145b91505092915050565b8273ffffffffffffffffffffffffffffffffffffffff16611ff482610c81565b73ffffffffffffffffffffffffffffffffffffffff161461204a576040517f08c379a0000000000000000000000000000000000000000000000000000000008152600401612041906140a9565b60405180910390fd5b600073ffffffffffffffffffffffffffffffffffffffff168273ffffffffffffffffffffffffffffffffffffffff1614156120ba576040517f08c379a00000000000000000000000000000000000000000000000000000000081526004016120b19061413b565b60405180910390fd5b6120c5838383612877565b6120d0600082611e86565b6001606f60008573ffffffffffffffffffffffffffffffffffffffff1673ffffffffffffffffffffffffffffffffffffffff16815260200190815260200160002060008282546121209190613dd8565b925050819055506001606f60008473ffffffffffffffffffffffffffffffffffffffff1673ffffffffffffffffffffffffffffffffffffffff16815260200190815260200160002060008282546121779190613d82565b9250508190555081606e600083815260200190815260200160002060006101000a81548173ffffffffffffffffffffffffffffffffffffffff021916908373ffffffffffffffffffffffffffffffffffffffff160217905550808273ffffffffffffffffffffffffffffffffffffffff168473ffffffffffffffffffffffffffffffffffffffff167fddf252ad1be2c89b69c2b068fc378daa952ba7f163c4a11628f55a4df523b3ef60405160405180910390a461223683838361287c565b505050565b60006122468261280b565b61224f57600080fd5b600060056000858152602001908152602001600020541461226f57600080fd5b60036000838152602001908152602001600020805490506004600085815260200190815260200160002081905550600360008381526020019081526020016000208390806001815401808255809150506001900390600052602060002001600090919091909150558160056000858152602001908152602001600020819055506001905092915050565b8173ffffffffffffffffffffffffffffffffffffffff168373ffffffffffffffffffffffffffffffffffffffff161415612368576040517f08c379a000000000000000000000000000000000000000000000000000000000815260040161235f906141a7565b60405180910390fd5b80607160008573ffffffffffffffffffffffffffffffffffffffff1673ffffffffffffffffffffffffffffffffffffffff16815260200190815260200160002060008473ffffffffffffffffffffffffffffffffffffffff1673ffffffffffffffffffffffffffffffffffffffff16815260200190815260200160002060006101000a81548160ff0219169083151502179055508173ffffffffffffffffffffffffffffffffffffffff168373ffffffffffffffffffffffffffffffffffffffff167f17307eab39ab6107e8899845ad3d59bd9653f200f220920489ca2b5937696c31836040516124599190612e25565b60405180910390a3505050565b60006124718261280b565b61247a57600080fd5b8160056000858152602001908152602001600020541461249957600080fd5b6000600460008581526020019081526020016000205490506000600160036000868152602001908152602001600020805490506124d69190613dd8565b90506003600085815260200190815260200160002081815481106124fd576124fc613cb2565b5b906000526020600020015460036000868152602001908152602001600020838154811061252d5761252c613cb2565b5b90600052602060002001819055506003600085815260200190815260200160002080548061255e5761255d6141c7565b5b600190038181906000526020600020016000905590556000600560008781526020019081526020016000208190555060019250505092915050565b6125a4848484611fd4565b6125b084848484612881565b6125ef576040517f08c379a00000000000000000000000000000000000000000000000000000000081526004016125e690614268565b60405180910390fd5b50505050565b61260f828260405180602001604052806000815250612a18565b5050565b6000808273ffffffffffffffffffffffffffffffffffffffff163b119050919050565b600660019054906101000a900460ff16612685576040517f08c379a000000000000000000000000000000000000000000000000000000000815260040161267c906142fa565b60405180910390fd5b61268f8282612a73565b5050565b606060405180602001604052806000815250905090565b606060008214156126f2576040518060400160405280600181526020017f30000000000000000000000000000000000000000000000000000000000000008152509050612806565b600082905060005b6000821461272457808061270d90613d10565b915050600a8261271d9190614349565b91506126fa565b60008167ffffffffffffffff8111156127405761273f6132fe565b5b6040519080825280601f01601f1916602001820160405280156127725781602001600182028036833780820191505090505b5090505b600085146127ff5760018261278b9190613dd8565b9150600a8561279a919061437a565b60306127a69190613d82565b60f81b8183815181106127bc576127bb613cb2565b5b60200101907effffffffffffffffffffffffffffffffffffffffffffffffffffffffffffff1916908160001a905350600a856127f89190614349565b9450612776565b8093505050505b919050565b60008073ffffffffffffffffffffffffffffffffffffffff16606e600084815260200190815260200160002060009054906101000a900473ffffffffffffffffffffffffffffffffffffffff1673ffffffffffffffffffffffffffffffffffffffff1614159050919050565b505050565b505050565b60006128a28473ffffffffffffffffffffffffffffffffffffffff16612613565b15612a0b578373ffffffffffffffffffffffffffffffffffffffff1663150b7a026128cb611e7e565b8786866040518563ffffffff1660e01b81526004016128ed94939291906143f5565b602060405180830381600087803b15801561290757600080fd5b505af192505050801561293857506040513d601f19601f820116820180604052508101906129359190614456565b60015b6129bb573d8060008114612968576040519150601f19603f3d011682016040523d82523d6000602084013e61296d565b606091505b506000815114156129b3576040517f08c379a00000000000000000000000000000000000000000000000000000000081526004016129aa90614268565b60405180910390fd5b805181602001fd5b63150b7a0260e01b7bffffffffffffffffffffffffffffffffffffffffffffffffffffffff1916817bffffffffffffffffffffffffffffffffffffffffffffffffffffffff191614915050612a10565b600190505b949350505050565b612a228383612af4565b612a2f6000848484612881565b612a6e576040517f08c379a0000000000000000000000000000000000000000000000000000000008152600401612a6590614268565b60405180910390fd5b505050565b600660019054906101000a900460ff16612ac2576040517f08c379a0000000000000000000000000000000000000000000000000000000008152600401612ab9906142fa565b60405180910390fd5b81606c9080519060200190612ad8929190612cce565b5080606d9080519060200190612aef929190612cce565b505050565b600073ffffffffffffffffffffffffffffffffffffffff168273ffffffffffffffffffffffffffffffffffffffff161415612b64576040517f08c379a0000000000000000000000000000000000000000000000000000000008152600401612b5b906144cf565b60405180910390fd5b612b6d8161280b565b15612bad576040517f08c379a0000000000000000000000000000000000000000000000000000000008152600401612ba49061453b565b60405180910390fd5b612bb960008383612877565b6001606f60008473ffffffffffffffffffffffffffffffffffffffff1673ffffffffffffffffffffffffffffffffffffffff1681526020019081526020016000206000828254612c099190613d82565b9250508190555081606e600083815260200190815260200160002060006101000a81548173ffffffffffffffffffffffffffffffffffffffff021916908373ffffffffffffffffffffffffffffffffffffffff160217905550808273ffffffffffffffffffffffffffffffffffffffff16600073ffffffffffffffffffffffffffffffffffffffff167fddf252ad1be2c89b69c2b068fc378daa952ba7f163c4a11628f55a4df523b3ef60405160405180910390a4612cca6000838361287c565b5050565b828054612cda90613698565b90600052602060002090601f016020900481019282612cfc5760008555612d43565b82601f10612d1557805160ff1916838001178555612d43565b82800160010185558215612d43579182015b82811115612d42578251825591602001919060010190612d27565b5b509050612d509190612d54565b5090565b5b80821115612d6d576000816000905550600101612d55565b5090565b6000604051905090565b600080fd5b600080fd5b60007fffffffff0000000000000000000000000000000000000000000000000000000082169050919050565b612dba81612d85565b8114612dc557600080fd5b50565b600081359050612dd781612db1565b92915050565b600060208284031215612df357612df2612d7b565b5b6000612e0184828501612dc8565b91505092915050565b60008115159050919050565b612e1f81612e0a565b82525050565b6000602082019050612e3a6000830184612e16565b92915050565b600081519050919050565b600082825260208201905092915050565b60005b83811015612e7a578082015181840152602081019050612e5f565b83811115612e89576000848401525b50505050565b6000601f19601f8301169050919050565b6000612eab82612e40565b612eb58185612e4b565b9350612ec5818560208601612e5c565b612ece81612e8f565b840191505092915050565b60006020820190508181036000830152612ef38184612ea0565b905092915050565b6000819050919050565b612f0e81612efb565b8114612f1957600080fd5b50565b600081359050612f2b81612f05565b92915050565b600060208284031215612f4757612f46612d7b565b5b6000612f5584828501612f1c565b91505092915050565b600073ffffffffffffffffffffffffffffffffffffffff82169050919050565b6000612f8982612f5e565b9050919050565b612f9981612f7e565b82525050565b6000602082019050612fb46000830184612f90565b92915050565b612fc381612f7e565b8114612fce57600080fd5b50565b600081359050612fe081612fba565b92915050565b60008060408385031215612ffd57612ffc612d7b565b5b600061300b85828601612fd1565b925050602061301c85828601612f1c565b9150509250929050565b600080fd5b600080fd5b600080fd5b60008083601f84011261304b5761304a613026565b5b8235905067ffffffffffffffff8111156130685761306761302b565b5b60208301915083600182028301111561308457613083613030565b5b9250929050565b6000806000806000608086880312156130a7576130a6612d7b565b5b60006130b588828901612fd1565b95505060206130c688828901612fd1565b94505060406130d788828901612f1c565b935050606086013567ffffffffffffffff8111156130f8576130f7612d80565b5b61310488828901613035565b92509250509295509295909350565b61311c81612d85565b82525050565b60006020820190506131376000830184613113565b92915050565b60008060006060848603121561315657613155612d7b565b5b600061316486828701612fd1565b935050602061317586828701612fd1565b925050604061318686828701612f1c565b9150509250925092565b6000602082840312156131a6576131a5612d7b565b5b60006131b484828501612fd1565b91505092915050565b6000806000606084860312156131d6576131d5612d7b565b5b60006131e486828701612fd1565b93505060206131f586828701612f1c565b925050604061320686828701612f1c565b9150509250925092565b61321981612efb565b82525050565b60006020820190506132346000830184613210565b92915050565b61324381612e0a565b811461324e57600080fd5b50565b6000813590506132608161323a565b92915050565b6000806040838503121561327d5761327c612d7b565b5b600061328b85828601612fd1565b925050602061329c85828601613251565b9150509250929050565b6000806000606084860312156132bf576132be612d7b565b5b60006132cd86828701612f1c565b93505060206132de86828701612fd1565b92505060406132ef86828701612fd1565b9150509250925092565b600080fd5b7f4e487b7100000000000000000000000000000000000000000000000000000000600052604160045260246000fd5b61333682612e8f565b810181811067ffffffffffffffff82111715613355576133546132fe565b5b80604052505050565b6000613368612d71565b9050613374828261332d565b919050565b600067ffffffffffffffff821115613394576133936132fe565b5b61339d82612e8f565b9050602081019050919050565b82818337600083830152505050565b60006133cc6133c784613379565b61335e565b9050828152602081018484840111156133e8576133e76132f9565b5b6133f38482856133aa565b509392505050565b600082601f8301126134105761340f613026565b5b81356134208482602086016133b9565b91505092915050565b6000806000806080858703121561344357613442612d7b565b5b600061345187828801612fd1565b945050602061346287828801612fd1565b935050604061347387828801612f1c565b925050606085013567ffffffffffffffff81111561349457613493612d80565b5b6134a0878288016133fb565b91505092959194509250565b600081519050919050565b600082825260208201905092915050565b6000819050602082019050919050565b6000819050919050565b6134eb816134d8565b82525050565b60006134fd83836134e2565b60208301905092915050565b6000602082019050919050565b6000613521826134ac565b61352b81856134b7565b9350613536836134c8565b8060005b8381101561356757815161354e88826134f1565b975061355983613509565b92505060018101905061353a565b5085935050505092915050565b6000604082019050818103600083015261358e8185613516565b905081810360208301526135a28184613516565b90509392505050565b60006135b682612f5e565b9050919050565b6135c6816135ab565b81146135d157600080fd5b50565b6000813590506135e3816135bd565b92915050565b60008060408385031215613600576135ff612d7b565b5b600061360e858286016135d4565b925050602061361f85828601612f1c565b9150509250929050565b600080604083850312156136405761363f612d7b565b5b600061364e85828601612fd1565b925050602061365f85828601612fd1565b9150509250929050565b7f4e487b7100000000000000000000000000000000000000000000000000000000600052602260045260246000fd5b600060028204905060018216806136b057607f821691505b602082108114156136c4576136c3613669565b5b50919050565b7f4552433732313a20617070726f76616c20746f2063757272656e74206f776e6560008201527f7200000000000000000000000000000000000000000000000000000000000000602082015250565b6000613726602183612e4b565b9150613731826136ca565b604082019050919050565b6000602082019050818103600083015261375581613719565b9050919050565b7f4552433732313a20617070726f76652063616c6c6572206973206e6f7420746f60008201527f6b656e206f776e6572206e6f7220617070726f76656420666f7220616c6c0000602082015250565b60006137b8603e83612e4b565b91506137c38261375c565b604082019050919050565b600060208201905081810360008301526137e7816137ab565b9050919050565b7f4552433732313a2063616c6c6572206973206e6f7420746f6b656e206f776e6560008201527f72206e6f7220617070726f766564000000000000000000000000000000000000602082015250565b600061384a602e83612e4b565b9150613855826137ee565b604082019050919050565b600060208201905081810360008301526138798161383d565b9050919050565b60006060820190506138956000830186612f90565b6138a26020830185613210565b6138af6040830184613210565b949350505050565b7f4f6e6c7920616e206f776e65722063616e2063616c6c20746869732066756e6360008201527f74696f6e00000000000000000000000000000000000000000000000000000000602082015250565b6000613913602483612e4b565b915061391e826138b7565b604082019050919050565b6000602082019050818103600083015261394281613906565b9050919050565b7f4552433732313a20696e76616c696420746f6b656e2049440000000000000000600082015250565b600061397f601883612e4b565b915061398a82613949565b602082019050919050565b600060208201905081810360008301526139ae81613972565b9050919050565b7f4f6e6c7920636f6e7472616374206465706c6f7965722063616e2063616c6c2060008201527f746869732066756e6374696f6e00000000000000000000000000000000000000602082015250565b6000613a11602d83612e4b565b9150613a1c826139b5565b604082019050919050565b60006020820190508181036000830152613a4081613a04565b9050919050565b7f4552433732313a2061646472657373207a65726f206973206e6f74206120766160008201527f6c6964206f776e65720000000000000000000000000000000000000000000000602082015250565b6000613aa3602983612e4b565b9150613aae82613a47565b604082019050919050565b60006020820190508181036000830152613ad281613a96565b9050919050565b613ae2816134d8565b8114613aed57600080fd5b50565b600081519050613aff81613ad9565b92915050565b60008060408385031215613b1c57613b1b612d7b565b5b6000613b2a85828601613af0565b9250506020613b3b85828601613af0565b9150509250929050565b7f457374617465206973206e6f74206f776e6564206279207472616e736163746960008201527f6f6e2073656e6465720000000000000000000000000000000000000000000000602082015250565b6000613ba1602983612e4b565b9150613bac82613b45565b604082019050919050565b60006020820190508181036000830152613bd081613b94565b9050919050565b613be0816134d8565b82525050565b6000608082019050613bfb6000830187613bd7565b613c086020830186613bd7565b613c156040830185612f90565b613c226060830184612f90565b95945050505050565b600081519050613c3a8161323a565b92915050565b600060208284031215613c5657613c55612d7b565b5b6000613c6484828501613c2b565b91505092915050565b6000608082019050613c826000830187613210565b613c8f6020830186613210565b613c9c6040830185612f90565b613ca96060830184612f90565b95945050505050565b7f4e487b7100000000000000000000000000000000000000000000000000000000600052603260045260246000fd5b7f4e487b7100000000000000000000000000000000000000000000000000000000600052601160045260246000fd5b6000613d1b82612efb565b91507fffffffffffffffffffffffffffffffffffffffffffffffffffffffffffffffff821415613d4e57613d4d613ce1565b5b600182019050919050565b6000604082019050613d6e6000830185613210565b613d7b6020830184612f90565b9392505050565b6000613d8d82612efb565b9150613d9883612efb565b9250827fffffffffffffffffffffffffffffffffffffffffffffffffffffffffffffffff03821115613dcd57613dcc613ce1565b5b828201905092915050565b6000613de382612efb565b9150613dee83612efb565b925082821015613e0157613e00613ce1565b5b828203905092915050565b7f496e697469616c697a61626c653a20636f6e747261637420697320616c72656160008201527f647920696e697469616c697a6564000000000000000000000000000000000000602082015250565b6000613e68602e83612e4b565b9150613e7382613e0c565b604082019050919050565b60006020820190508181036000830152613e9781613e5b565b9050919050565b6000819050919050565b600060ff82169050919050565b6000819050919050565b6000613eda613ed5613ed084613e9e565b613eb5565b613ea8565b9050919050565b613eea81613ebf565b82525050565b6000602082019050613f056000830184613ee1565b92915050565b600081905092915050565b6000613f2182612e40565b613f2b8185613f0b565b9350613f3b818560208601612e5c565b80840191505092915050565b6000613f538285613f16565b9150613f5f8284613f16565b91508190509392505050565b6000606082019050613f806000830186612f90565b613f8d6020830185612f90565b613f9a6040830184613210565b949350505050565b600081519050919050565b600081905092915050565b6000613fc382613fa2565b613fcd8185613fad565b9350613fdd818560208601612e5c565b80840191505092915050565b6000613ff58284613fb8565b915081905092915050565b60006060820190506140156000830186613210565b6140226020830185612f90565b61402f6040830184612f90565b949350505050565b7f4552433732313a207472616e736665722066726f6d20696e636f72726563742060008201527f6f776e6572000000000000000000000000000000000000000000000000000000602082015250565b6000614093602583612e4b565b915061409e82614037565b604082019050919050565b600060208201905081810360008301526140c281614086565b9050919050565b7f4552433732313a207472616e7366657220746f20746865207a65726f2061646460008201527f7265737300000000000000000000000000000000000000000000000000000000602082015250565b6000614125602483612e4b565b9150614130826140c9565b604082019050919050565b6000602082019050818103600083015261415481614118565b9050919050565b7f4552433732313a20617070726f766520746f2063616c6c657200000000000000600082015250565b6000614191601983612e4b565b915061419c8261415b565b602082019050919050565b600060208201905081810360008301526141c081614184565b9050919050565b7f4e487b7100000000000000000000000000000000000000000000000000000000600052603160045260246000fd5b7f4552433732313a207472616e7366657220746f206e6f6e20455243373231526560008201527f63656976657220696d706c656d656e7465720000000000000000000000000000602082015250565b6000614252603283612e4b565b915061425d826141f6565b604082019050919050565b6000602082019050818103600083015261428181614245565b9050919050565b7f496e697469616c697a61626c653a20636f6e7472616374206973206e6f74206960008201527f6e697469616c697a696e67000000000000000000000000000000000000000000602082015250565b60006142e4602b83612e4b565b91506142ef82614288565b604082019050919050565b60006020820190508181036000830152614313816142d7565b9050919050565b7f4e487b7100000000000000000000000000000000000000000000000000000000600052601260045260246000fd5b600061435482612efb565b915061435f83612efb565b92508261436f5761436e61431a565b5b828204905092915050565b600061438582612efb565b915061439083612efb565b9250826143a05761439f61431a565b5b828206905092915050565b600082825260208201905092915050565b60006143c782613fa2565b6143d181856143ab565b93506143e1818560208601612e5c565b6143ea81612e8f565b840191505092915050565b600060808201905061440a6000830187612f90565b6144176020830186612f90565b6144246040830185613210565b818103606083015261443681846143bc565b905095945050505050565b60008151905061445081612db1565b92915050565b60006020828403121561446c5761446b612d7b565b5b600061447a84828501614441565b91505092915050565b7f4552433732313a206d696e7420746f20746865207a65726f2061646472657373600082015250565b60006144b9602083612e4b565b91506144c482614483565b602082019050919050565b600060208201905081810360008301526144e8816144ac565b9050919050565b7f4552433732313a20746f6b656e20616c7265616479206d696e74656400000000600082015250565b6000614525601c83612e4b565b9150614530826144ef565b602082019050919050565b6000602082019050818103600083015261455481614518565b905091905056fea264697066735822122022e6520fd1d3b2585ba79f2539c79bb56d283e3204a93455452cfcd9241a254964736f6c63430008090033",
  "linkReferences": {},
  "deployedLinkReferences": {}
}