{
  "_format": "hh-sol-artifact-1",
  "contractName": "LandRegistry",
  "sourceName": "contracts/land/LandRegistry.sol",
  "abi": [
    {
      "anonymous": false,
      "inputs": [
        {
          "indexed": true,
          "internalType": "address",
          "name": "owner",
          "type": "address"
        },
        {
          "indexed": true,
          "internalType": "address",
          "name": "approved",
          "type": "address"
        },
        {
          "indexed": true,
          "internalType": "uint256",
          "name": "tokenId",
          "type": "uint256"
        }
      ],
      "name": "Approval",
      "type": "event"
    },
    {
      "anonymous": false,
      "inputs": [
        {
          "indexed": true,
          "internalType": "address",
          "name": "owner",
          "type": "address"
        },
        {
          "indexed": true,
          "internalType": "address",
          "name": "operator",
          "type": "address"
        },
        {
          "indexed": false,
          "internalType": "bool",
          "name": "approved",
          "type": "bool"
        }
      ],
      "name": "ApprovalForAll",
      "type": "event"
    },
    {
      "anonymous": false,
      "inputs": [
        {
          "indexed": false,
          "internalType": "uint256",
          "name": "estateID",
          "type": "uint256"
        },
        {
          "indexed": false,
          "internalType": "address",
          "name": "to",
          "type": "address"
        },
        {
          "indexed": false,
          "internalType": "int256[]",
          "name": "x",
          "type": "int256[]"
        },
        {
          "indexed": false,
          "internalType": "int256[]",
          "name": "y",
          "type": "int256[]"
        }
      ],
      "name": "EstateCreated",
      "type": "event"
    },
    {
      "anonymous": false,
      "inputs": [
        {
          "indexed": false,
          "internalType": "address",
          "name": "estateRegistryAddr",
          "type": "address"
        }
      ],
      "name": "EstateRegistryUpdated",
      "type": "event"
    },
    {
      "anonymous": false,
      "inputs": [
        {
          "indexed": false,
          "internalType": "uint8",
          "name": "version",
          "type": "uint8"
        }
      ],
      "name": "Initialized",
      "type": "event"
    },
    {
      "anonymous": false,
      "inputs": [
        {
          "indexed": false,
          "internalType": "uint256",
          "name": "landID",
          "type": "uint256"
        },
        {
          "indexed": false,
          "internalType": "uint256",
          "name": "price",
          "type": "uint256"
        },
        {
          "indexed": false,
          "internalType": "address",
          "name": "to",
          "type": "address"
        }
      ],
      "name": "LandMinted",
      "type": "event"
    },
    {
      "anonymous": false,
      "inputs": [
        {
          "indexed": false,
          "internalType": "uint256",
          "name": "landID",
          "type": "uint256"
        },
        {
          "indexed": false,
          "internalType": "uint256",
          "name": "oldPrice",
          "type": "uint256"
        },
        {
          "indexed": false,
          "internalType": "uint256",
          "name": "newPrice",
          "type": "uint256"
        }
      ],
      "name": "LandPriceChanged",
      "type": "event"
    },
    {
      "anonymous": false,
      "inputs": [
        {
          "indexed": false,
          "internalType": "uint256",
          "name": "landID",
          "type": "uint256"
        },
        {
          "indexed": false,
          "internalType": "address",
          "name": "buyer",
          "type": "address"
        },
        {
          "indexed": false,
          "internalType": "uint256",
          "name": "price",
          "type": "uint256"
        }
      ],
      "name": "LandPurchased",
      "type": "event"
    },
    {
      "anonymous": false,
      "inputs": [
        {
          "indexed": false,
          "internalType": "uint256",
          "name": "landID",
          "type": "uint256"
        },
        {
          "indexed": false,
          "internalType": "address",
          "name": "from",
          "type": "address"
        },
        {
          "indexed": false,
          "internalType": "address",
          "name": "to",
          "type": "address"
        }
      ],
      "name": "LandTransfered",
      "type": "event"
    },
    {
      "anonymous": false,
      "inputs": [
        {
          "indexed": false,
          "internalType": "uint256",
          "name": "landID",
          "type": "uint256"
        },
        {
          "indexed": false,
          "internalType": "uint256",
          "name": "estateID",
          "type": "uint256"
        },
        {
          "indexed": false,
          "internalType": "address",
          "name": "from",
          "type": "address"
        }
      ],
      "name": "LandTransferredToEstateRegistry",
      "type": "event"
    },
    {
      "anonymous": false,
      "inputs": [
        {
          "indexed": true,
          "internalType": "address",
          "name": "from",
          "type": "address"
        },
        {
          "indexed": true,
          "internalType": "address",
          "name": "to",
          "type": "address"
        },
        {
          "indexed": true,
          "internalType": "uint256",
          "name": "tokenId",
          "type": "uint256"
        }
      ],
      "name": "Transfer",
      "type": "event"
    },
    {
      "inputs": [
        {
          "internalType": "address",
          "name": "owner",
          "type": "address"
        }
      ],
      "name": "addOwner",
      "outputs": [],
      "stateMutability": "nonpayable",
      "type": "function"
    },
    {
      "inputs": [
        {
          "internalType": "address",
          "name": "to",
          "type": "address"
        },
        {
          "internalType": "uint256",
          "name": "tokenId",
          "type": "uint256"
        }
      ],
      "name": "approve",
      "outputs": [],
      "stateMutability": "nonpayable",
      "type": "function"
    },
    {
      "inputs": [
        {
          "internalType": "address",
          "name": "owner",
          "type": "address"
        }
      ],
      "name": "balanceOf",
      "outputs": [
        {
          "internalType": "uint256",
          "name": "",
          "type": "uint256"
        }
      ],
      "stateMutability": "view",
      "type": "function"
    },
    {
      "inputs": [
        {
          "internalType": "int256[]",
          "name": "x",
          "type": "int256[]"
        },
        {
          "internalType": "int256[]",
          "name": "y",
          "type": "int256[]"
        },
        {
          "internalType": "address",
          "name": "owner",
          "type": "address"
        }
      ],
      "name": "createEstate",
      "outputs": [
        {
          "internalType": "uint256",
          "name": "",
          "type": "uint256"
        }
      ],
      "stateMutability": "nonpayable",
      "type": "function"
    },
    {
      "inputs": [
        {
          "internalType": "uint256",
          "name": "landID",
          "type": "uint256"
        }
      ],
      "name": "decodeLandID",
      "outputs": [
        {
          "internalType": "int256",
          "name": "",
          "type": "int256"
        },
        {
          "internalType": "int256",
          "name": "",
          "type": "int256"
        }
      ],
      "stateMutability": "pure",
      "type": "function"
    },
    {
      "inputs": [
        {
          "internalType": "int256",
          "name": "x",
          "type": "int256"
        },
        {
          "internalType": "int256",
          "name": "y",
          "type": "int256"
        }
      ],
      "name": "encodeLandID",
      "outputs": [
        {
          "internalType": "uint256",
          "name": "",
          "type": "uint256"
        }
      ],
      "stateMutability": "pure",
      "type": "function"
    },
    {
      "inputs": [
        {
          "internalType": "address",
          "name": "sendTo",
          "type": "address"
        },
        {
          "internalType": "address",
          "name": "token",
          "type": "address"
        },
        {
          "internalType": "uint256",
          "name": "value",
          "type": "uint256"
        }
      ],
      "name": "extractERC20Token",
      "outputs": [],
      "stateMutability": "nonpayable",
      "type": "function"
    },
    {
      "inputs": [
        {
          "internalType": "address payable",
          "name": "sendTo",
          "type": "address"
        },
        {
          "internalType": "uint256",
          "name": "value",
          "type": "uint256"
        }
      ],
      "name": "extractETH",
      "outputs": [],
      "stateMutability": "nonpayable",
      "type": "function"
    },
    {
      "inputs": [
        {
          "internalType": "uint256",
          "name": "tokenId",
          "type": "uint256"
        }
      ],
      "name": "getApproved",
      "outputs": [
        {
          "internalType": "address",
          "name": "",
          "type": "address"
        }
      ],
      "stateMutability": "view",
      "type": "function"
    },
    {
      "inputs": [
        {
          "internalType": "address",
          "name": "estateRegistryAddr",
          "type": "address"
        }
      ],
      "name": "initialize",
      "outputs": [],
      "stateMutability": "payable",
      "type": "function"
    },
    {
      "inputs": [
        {
          "internalType": "address",
          "name": "owner",
          "type": "address"
        },
        {
          "internalType": "address",
          "name": "operator",
          "type": "address"
        }
      ],
      "name": "isApprovedForAll",
      "outputs": [
        {
          "internalType": "bool",
          "name": "",
          "type": "bool"
        }
      ],
      "stateMutability": "view",
      "type": "function"
    },
    {
      "inputs": [
        {
          "internalType": "address",
          "name": "check",
          "type": "address"
        }
      ],
      "name": "isOwner",
      "outputs": [
        {
          "internalType": "bool",
          "name": "",
          "type": "bool"
        }
      ],
      "stateMutability": "view",
      "type": "function"
    },
    {
      "inputs": [
        {
          "internalType": "address",
          "name": "owner",
          "type": "address"
        }
      ],
      "name": "landOf",
      "outputs": [
        {
          "internalType": "int256[]",
          "name": "",
          "type": "int256[]"
        },
        {
          "internalType": "int256[]",
          "name": "",
          "type": "int256[]"
        }
      ],
      "stateMutability": "view",
      "type": "function"
    },
    {
      "inputs": [
        {
          "internalType": "uint256",
          "name": "landID",
          "type": "uint256"
        }
      ],
      "name": "landOwner",
      "outputs": [
        {
          "internalType": "address",
          "name": "",
          "type": "address"
        }
      ],
      "stateMutability": "view",
      "type": "function"
    },
    {
      "inputs": [
        {
          "internalType": "int256",
          "name": "x",
          "type": "int256"
        },
        {
          "internalType": "int256",
          "name": "y",
          "type": "int256"
        },
        {
          "internalType": "uint256",
          "name": "price",
          "type": "uint256"
        },
        {
          "internalType": "address",
          "name": "to",
          "type": "address"
        }
      ],
      "name": "mintLand",
      "outputs": [
        {
          "internalType": "bool",
          "name": "",
          "type": "bool"
        }
      ],
      "stateMutability": "nonpayable",
      "type": "function"
    },
    {
      "inputs": [],
      "name": "name",
      "outputs": [
        {
          "internalType": "string",
          "name": "",
          "type": "string"
        }
      ],
      "stateMutability": "view",
      "type": "function"
    },
    {
      "inputs": [
        {
          "internalType": "address",
          "name": "operator",
          "type": "address"
        },
        {
          "internalType": "address",
          "name": "from",
          "type": "address"
        },
        {
          "internalType": "uint256",
          "name": "tokenId",
          "type": "uint256"
        },
        {
          "internalType": "bytes",
          "name": "data",
          "type": "bytes"
        }
      ],
      "name": "onERC721Received",
      "outputs": [
        {
          "internalType": "bytes4",
          "name": "",
          "type": "bytes4"
        }
      ],
      "stateMutability": "pure",
      "type": "function"
    },
    {
      "inputs": [
        {
          "internalType": "uint256",
          "name": "tokenId",
          "type": "uint256"
        }
      ],
      "name": "ownerOf",
      "outputs": [
        {
          "internalType": "address",
          "name": "",
          "type": "address"
        }
      ],
      "stateMutability": "view",
      "type": "function"
    },
    {
      "inputs": [
        {
          "internalType": "int256",
          "name": "x",
          "type": "int256"
        },
        {
          "internalType": "int256",
          "name": "y",
          "type": "int256"
        },
        {
          "internalType": "address",
          "name": "buyer",
          "type": "address"
        }
      ],
      "name": "purchaseLand",
      "outputs": [
        {
          "internalType": "bool",
          "name": "",
          "type": "bool"
        }
      ],
      "stateMutability": "payable",
      "type": "function"
    },
    {
      "inputs": [
        {
          "internalType": "address",
          "name": "owner",
          "type": "address"
        }
      ],
      "name": "revokeOwner",
      "outputs": [],
      "stateMutability": "nonpayable",
      "type": "function"
    },
    {
      "inputs": [
        {
          "internalType": "address",
          "name": "from",
          "type": "address"
        },
        {
          "internalType": "address",
          "name": "to",
          "type": "address"
        },
        {
          "internalType": "uint256",
          "name": "tokenId",
          "type": "uint256"
        }
      ],
      "name": "safeTransferFrom",
      "outputs": [],
      "stateMutability": "nonpayable",
      "type": "function"
    },
    {
      "inputs": [
        {
          "internalType": "address",
          "name": "from",
          "type": "address"
        },
        {
          "internalType": "address",
          "name": "to",
          "type": "address"
        },
        {
          "internalType": "uint256",
          "name": "tokenId",
          "type": "uint256"
        },
        {
          "internalType": "bytes",
          "name": "data",
          "type": "bytes"
        }
      ],
      "name": "safeTransferFrom",
      "outputs": [],
      "stateMutability": "nonpayable",
      "type": "function"
    },
    {
      "inputs": [
        {
          "internalType": "address",
          "name": "operator",
          "type": "address"
        },
        {
          "internalType": "bool",
          "name": "approved",
          "type": "bool"
        }
      ],
      "name": "setApprovalForAll",
      "outputs": [],
      "stateMutability": "nonpayable",
      "type": "function"
    },
    {
      "inputs": [
        {
          "internalType": "int256",
          "name": "x",
          "type": "int256"
        },
        {
          "internalType": "int256",
          "name": "y",
          "type": "int256"
        },
        {
          "internalType": "uint256",
          "name": "price",
          "type": "uint256"
        }
      ],
      "name": "setLandPrice",
      "outputs": [
        {
          "internalType": "bool",
          "name": "",
          "type": "bool"
        }
      ],
      "stateMutability": "nonpayable",
      "type": "function"
    },
    {
      "inputs": [
        {
          "internalType": "bytes4",
          "name": "interfaceId",
          "type": "bytes4"
        }
      ],
      "name": "supportsInterface",
      "outputs": [
        {
          "internalType": "bool",
          "name": "",
          "type": "bool"
        }
      ],
      "stateMutability": "view",
      "type": "function"
    },
    {
      "inputs": [],
      "name": "symbol",
      "outputs": [
        {
          "internalType": "string",
          "name": "",
          "type": "string"
        }
      ],
      "stateMutability": "view",
      "type": "function"
    },
    {
      "inputs": [
        {
          "internalType": "uint256",
          "name": "tokenId",
          "type": "uint256"
        }
      ],
      "name": "tokenURI",
      "outputs": [
        {
          "internalType": "string",
          "name": "",
          "type": "string"
        }
      ],
      "stateMutability": "view",
      "type": "function"
    },
    {
      "inputs": [
        {
          "internalType": "address",
          "name": "from",
          "type": "address"
        },
        {
          "internalType": "address",
          "name": "to",
          "type": "address"
        },
        {
          "internalType": "uint256",
          "name": "tokenId",
          "type": "uint256"
        }
      ],
      "name": "transferFrom",
      "outputs": [],
      "stateMutability": "nonpayable",
      "type": "function"
    },
    {
      "inputs": [
        {
          "internalType": "int256",
          "name": "x",
          "type": "int256"
        },
        {
          "internalType": "int256",
          "name": "y",
          "type": "int256"
        },
        {
          "internalType": "address",
          "name": "from",
          "type": "address"
        },
        {
          "internalType": "address",
          "name": "to",
          "type": "address"
        }
      ],
      "name": "transferLand",
      "outputs": [
        {
          "internalType": "bool",
          "name": "",
          "type": "bool"
        }
      ],
      "stateMutability": "nonpayable",
      "type": "function"
    },
    {
      "inputs": [
        {
          "internalType": "int256",
          "name": "x",
          "type": "int256"
        },
        {
          "internalType": "int256",
          "name": "y",
          "type": "int256"
        },
        {
          "internalType": "uint256",
          "name": "estateID",
          "type": "uint256"
        },
        {
          "internalType": "address",
          "name": "owner",
          "type": "address"
        }
      ],
      "name": "transferToEstate",
      "outputs": [],
      "stateMutability": "nonpayable",
      "type": "function"
    },
    {
      "inputs": [
        {
          "internalType": "address",
          "name": "estateRegistryAddr",
          "type": "address"
        }
      ],
      "name": "updateEstateRegistry",
      "outputs": [],
      "stateMutability": "nonpayable",
      "type": "function"
    }
  ],
  "bytecode": "0x608060405234801561001057600080fd5b5033609760006101000a81548173ffffffffffffffffffffffffffffffffffffffff021916908373ffffffffffffffffffffffffffffffffffffffff1602179055506001609860003373ffffffffffffffffffffffffffffffffffffffff1673ffffffffffffffffffffffffffffffffffffffff16815260200190815260200160002060006101000a81548160ff021916908315150217905550614e11806100b96000396000f3fe6080604052600436106101d85760003560e01c80636352211e11610102578063b88d4fde11610095578063daa82a5611610064578063daa82a5614610748578063dae388e614610771578063e985e9c51461079a578063f9d7273f146107d7576101d8565b8063b88d4fde14610689578063c4d66de8146106b2578063c87b56dd146106ce578063ca8a2c081461070b576101d8565b8063885363eb116100d1578063885363eb146105b957806395d89b41146105f7578063a22cb46514610622578063aab40f401461064b576101d8565b80636352211e146104ed5780636d1511011461052a5780637065cb481461055357806370a082311461057c576101d8565b806323b872dd1161017a57806342842e0e1161014957806342842e0e146104215780634d7a97e21461044a5780634dcb280e14610487578063519dd918146104c4576101d8565b806323b872dd146103555780632ef1e3361461037e5780632f54bf6e146103a75780632fa1bf41146103e4576101d8565b8063095ea7b3116101b6578063095ea7b314610282578063121e9ae8146102ab578063150b7a02146102e85780631e7301a414610325576101d8565b806301ffc9a7146101dd57806306fdde031461021a578063081812fc14610245575b600080fd5b3480156101e957600080fd5b5061020460048036038101906101ff91906132ad565b610814565b60405161021191906132f5565b60405180910390f35b34801561022657600080fd5b5061022f6108f6565b60405161023c91906133a9565b60405180910390f35b34801561025157600080fd5b5061026c60048036038101906102679190613401565b610988565b604051610279919061346f565b60405180910390f35b34801561028e57600080fd5b506102a960048036038101906102a491906134b6565b6109ce565b005b3480156102b757600080fd5b506102d260048036038101906102cd919061352c565b610ae6565b6040516102df91906132f5565b60405180910390f35b3480156102f457600080fd5b5061030f600480360381019061030a91906135e4565b610bfa565b60405161031c919061367b565b60405180910390f35b61033f600480360381019061033a9190613696565b610c0f565b60405161034c91906132f5565b60405180910390f35b34801561036157600080fd5b5061037c600480360381019061037791906136e9565b610e5a565b005b34801561038a57600080fd5b506103a560048036038101906103a0919061373c565b610eba565b005b3480156103b357600080fd5b506103ce60048036038101906103c9919061373c565b610fc1565b6040516103db91906132f5565b60405180910390f35b3480156103f057600080fd5b5061040b60048036038101906104069190613769565b611017565b60405161041891906137b8565b60405180910390f35b34801561042d57600080fd5b50610448600480360381019061044391906136e9565b61102b565b005b34801561045657600080fd5b50610471600480360381019061046c91906137d3565b61104b565b60405161047e91906132f5565b60405180910390f35b34801561049357600080fd5b506104ae60048036038101906104a99190613401565b611211565b6040516104bb919061346f565b60405180910390f35b3480156104d057600080fd5b506104eb60048036038101906104e691906137d3565b611223565b005b3480156104f957600080fd5b50610514600480360381019061050f9190613401565b611436565b604051610521919061346f565b60405180910390f35b34801561053657600080fd5b50610551600480360381019061054c919061373c565b6114e8565b005b34801561055f57600080fd5b5061057a6004803603810190610575919061373c565b6115d3565b005b34801561058857600080fd5b506105a3600480360381019061059e919061373c565b6116be565b6040516105b091906137b8565b60405180910390f35b3480156105c557600080fd5b506105e060048036038101906105db919061373c565b611776565b6040516105ee9291906138f8565b60405180910390f35b34801561060357600080fd5b5061060c61193f565b60405161061991906133a9565b60405180910390f35b34801561062e57600080fd5b506106496004803603810190610644919061395b565b6119d1565b005b34801561065757600080fd5b50610672600480360381019061066d9190613401565b6119e7565b6040516106809291906139aa565b60405180910390f35b34801561069557600080fd5b506106b060048036038101906106ab9190613b03565b6119fc565b005b6106cc60048036038101906106c7919061373c565b611a5e565b005b3480156106da57600080fd5b506106f560048036038101906106f09190613401565b611b2e565b60405161070291906133a9565b60405180910390f35b34801561071757600080fd5b50610732600480360381019061072d9190613c49565b611b96565b60405161073f91906137b8565b60405180910390f35b34801561075457600080fd5b5061076f600480360381019061076a9190613d12565b611de5565b005b34801561077d57600080fd5b50610798600480360381019061079391906136e9565b611ebc565b005b3480156107a657600080fd5b506107c160048036038101906107bc9190613d52565b61207c565b6040516107ce91906132f5565b60405180910390f35b3480156107e357600080fd5b506107fe60048036038101906107f99190613d92565b612110565b60405161080b91906132f5565b60405180910390f35b60007f80ac58cd000000000000000000000000000000000000000000000000000000007bffffffffffffffffffffffffffffffffffffffffffffffffffffffff1916827bffffffffffffffffffffffffffffffffffffffffffffffffffffffff191614806108df57507f5b5e139f000000000000000000000000000000000000000000000000000000007bffffffffffffffffffffffffffffffffffffffffffffffffffffffff1916827bffffffffffffffffffffffffffffffffffffffffffffffffffffffff1916145b806108ef57506108ee826121e6565b5b9050919050565b60606065805461090590613e28565b80601f016020809104026020016040519081016040528092919081815260200182805461093190613e28565b801561097e5780601f106109535761010080835404028352916020019161097e565b820191906000526020600020905b81548152906001019060200180831161096157829003601f168201915b5050505050905090565b600061099382612250565b6069600083815260200190815260200160002060009054906101000a900473ffffffffffffffffffffffffffffffffffffffff169050919050565b60006109d982611436565b90508073ffffffffffffffffffffffffffffffffffffffff168373ffffffffffffffffffffffffffffffffffffffff161415610a4a576040517f08c379a0000000000000000000000000000000000000000000000000000000008152600401610a4190613ecc565b60405180910390fd5b8073ffffffffffffffffffffffffffffffffffffffff16610a6961229b565b73ffffffffffffffffffffffffffffffffffffffff161480610a985750610a9781610a9261229b565b61207c565b5b610ad7576040517f08c379a0000000000000000000000000000000000000000000000000000000008152600401610ace90613f5e565b60405180910390fd5b610ae183836122a3565b505050565b6000609860003373ffffffffffffffffffffffffffffffffffffffff1673ffffffffffffffffffffffffffffffffffffffff16815260200190815260200160002060009054906101000a900460ff16610b74576040517f08c379a0000000000000000000000000000000000000000000000000000000008152600401610b6b90613ff0565b60405180910390fd5b6000610b80858561235c565b90506000609960008381526020019081526020016000205490508360996000848152602001908152602001600020819055507fb37d0510a90badb40f1347909f0fae004b3d80108fb3ff36bce3f8c642ce6851828286604051610be593929190614010565b60405180910390a16001925050509392505050565b600063150b7a0260e01b905095945050505050565b60008173ffffffffffffffffffffffffffffffffffffffff163373ffffffffffffffffffffffffffffffffffffffff1614610c7f576040517f08c379a0000000000000000000000000000000000000000000000000000000008152600401610c76906140b9565b60405180910390fd5b6000610c8b858561235c565b905060996000828152602001908152602001600020543414610cac57600080fd5b6000803073ffffffffffffffffffffffffffffffffffffffff1687873088604051602401610cdd94939291906140d9565b6040516020818303038152906040527ff9d7273f000000000000000000000000000000000000000000000000000000007bffffffffffffffffffffffffffffffffffffffffffffffffffffffff19166020820180517bffffffffffffffffffffffffffffffffffffffffffffffffffffffff8381831617835250505050604051610d679190614165565b6000604051808303816000865af19150503d8060008114610da4576040519150601f19603f3d011682016040523d82523d6000602084013e610da9565b606091505b509150915081610dee576040517f08c379a0000000000000000000000000000000000000000000000000000000008152600401610de5906141c8565b60405180910390fd5b600081806020019051810190610e0491906141fd565b905080610e1057600080fd5b7f2cad7e5f3dfae0be77bc989eebfd6a286bd6926d16f48d2b3b5a7ad63415285f848734604051610e439392919061422a565b60405180910390a160019450505050509392505050565b610e6b610e6561229b565b826123b9565b610eaa576040517f08c379a0000000000000000000000000000000000000000000000000000000008152600401610ea1906142d3565b60405180910390fd5b610eb583838361244e565b505050565b609860003373ffffffffffffffffffffffffffffffffffffffff1673ffffffffffffffffffffffffffffffffffffffff16815260200190815260200160002060009054906101000a900460ff16610f46576040517f08c379a0000000000000000000000000000000000000000000000000000000008152600401610f3d90613ff0565b60405180910390fd5b80609c60006101000a81548173ffffffffffffffffffffffffffffffffffffffff021916908373ffffffffffffffffffffffffffffffffffffffff1602179055507f3dffd1f94d9c1c09c37ce78fb64d4d2b2270be48095f45d733e8fcada23e604481604051610fb6919061346f565b60405180910390a150565b6000609860008373ffffffffffffffffffffffffffffffffffffffff1673ffffffffffffffffffffffffffffffffffffffff16815260200190815260200160002060009054906101000a900460ff169050919050565b6000611023838361235c565b905092915050565b611046838383604051806020016040528060008152506119fc565b505050565b6000609860003373ffffffffffffffffffffffffffffffffffffffff1673ffffffffffffffffffffffffffffffffffffffff16815260200190815260200160002060009054906101000a900460ff166110d9576040517f08c379a00000000000000000000000000000000000000000000000000000000081526004016110d090613ff0565b60405180910390fd5b60006110e5868661235c565b90506110f183826126b5565b836099600083815260200190815260200160002081905550609a60008473ffffffffffffffffffffffffffffffffffffffff1673ffffffffffffffffffffffffffffffffffffffff16815260200190815260200160002080549050609b600083815260200190815260200160002081905550609a60008473ffffffffffffffffffffffffffffffffffffffff1673ffffffffffffffffffffffffffffffffffffffff1681526020019081526020016000208190806001815401808255809150506001900390600052602060002001600090919091909150557fdd6e20d6153fc31fd50bebf614f6616909a0b36118ee2a6dbade5008a459c1d08185856040516111fc939291906142f3565b60405180910390a16001915050949350505050565b600061121c82611436565b9050919050565b8073ffffffffffffffffffffffffffffffffffffffff163373ffffffffffffffffffffffffffffffffffffffff1614611291576040517f08c379a0000000000000000000000000000000000000000000000000000000008152600401611288906140b9565b60405180910390fd5b600061129d858561235c565b90508173ffffffffffffffffffffffffffffffffffffffff166112bf82611436565b73ffffffffffffffffffffffffffffffffffffffff1614611315576040517f08c379a000000000000000000000000000000000000000000000000000000000815260040161130c90614376565b60405180910390fd5b6113428183609c60009054906101000a900473ffffffffffffffffffffffffffffffffffffffff166126d3565b609c60009054906101000a900473ffffffffffffffffffffffffffffffffffffffff1673ffffffffffffffffffffffffffffffffffffffff166347649f568383866040518463ffffffff1660e01b81526004016113a193929190614396565b602060405180830381600087803b1580156113bb57600080fd5b505af11580156113cf573d6000803e3d6000fd5b505050506040513d601f19601f820116820180604052508101906113f391906141fd565b507f303a031c935fd79bd1fc5b609f6870351b84dce7b391224133ff5a0dcb110957818484604051611427939291906142f3565b60405180910390a15050505050565b6000806067600084815260200190815260200160002060009054906101000a900473ffffffffffffffffffffffffffffffffffffffff169050600073ffffffffffffffffffffffffffffffffffffffff168173ffffffffffffffffffffffffffffffffffffffff1614156114df576040517f08c379a00000000000000000000000000000000000000000000000000000000081526004016114d690614419565b60405180910390fd5b80915050919050565b609760009054906101000a900473ffffffffffffffffffffffffffffffffffffffff1673ffffffffffffffffffffffffffffffffffffffff163373ffffffffffffffffffffffffffffffffffffffff1614611578576040517f08c379a000000000000000000000000000000000000000000000000000000000815260040161156f906144ab565b60405180910390fd5b6000609860008373ffffffffffffffffffffffffffffffffffffffff1673ffffffffffffffffffffffffffffffffffffffff16815260200190815260200160002060006101000a81548160ff02191690831515021790555050565b609760009054906101000a900473ffffffffffffffffffffffffffffffffffffffff1673ffffffffffffffffffffffffffffffffffffffff163373ffffffffffffffffffffffffffffffffffffffff1614611663576040517f08c379a000000000000000000000000000000000000000000000000000000000815260040161165a906144ab565b60405180910390fd5b6001609860008373ffffffffffffffffffffffffffffffffffffffff1673ffffffffffffffffffffffffffffffffffffffff16815260200190815260200160002060006101000a81548160ff02191690831515021790555050565b60008073ffffffffffffffffffffffffffffffffffffffff168273ffffffffffffffffffffffffffffffffffffffff16141561172f576040517f08c379a00000000000000000000000000000000000000000000000000000000081526004016117269061453d565b60405180910390fd5b606860008373ffffffffffffffffffffffffffffffffffffffff1673ffffffffffffffffffffffffffffffffffffffff168152602001908152602001600020549050919050565b6060806000609a60008573ffffffffffffffffffffffffffffffffffffffff1673ffffffffffffffffffffffffffffffffffffffff16815260200190815260200160002080548060200260200160405190810160405280929190818152602001828054801561180457602002820191906000526020600020905b8154815260200190600101908083116117f0575b505050505090506000815167ffffffffffffffff811115611828576118276139d8565b5b6040519080825280602002602001820160405280156118565781602001602082028036833780820191505090505b5090506000825167ffffffffffffffff811115611876576118756139d8565b5b6040519080825280602002602001820160405280156118a45781602001602082028036833780820191505090505b50905060005b8351811015611930576000806118d98684815181106118cc576118cb61455d565b5b60200260200101516129eb565b91509150818584815181106118f1576118f061455d565b5b602002602001018181525050808484815181106119115761191061455d565b5b602002602001018181525050505080611929906145bb565b90506118aa565b50818194509450505050915091565b60606066805461194e90613e28565b80601f016020809104026020016040519081016040528092919081815260200182805461197a90613e28565b80156119c75780601f1061199c576101008083540402835291602001916119c7565b820191906000526020600020905b8154815290600101906020018083116119aa57829003601f168201915b5050505050905090565b6119e36119dc61229b565b8383612a4d565b5050565b6000806119f3836129eb565b91509150915091565b611a0d611a0761229b565b836123b9565b611a4c576040517f08c379a0000000000000000000000000000000000000000000000000000000008152600401611a43906142d3565b60405180910390fd5b611a5884848484612bba565b50505050565b609860003373ffffffffffffffffffffffffffffffffffffffff1673ffffffffffffffffffffffffffffffffffffffff16815260200190815260200160002060009054906101000a900460ff16611aea576040517f08c379a0000000000000000000000000000000000000000000000000000000008152600401611ae190613ff0565b60405180910390fd5b80609c60006101000a81548173ffffffffffffffffffffffffffffffffffffffff021916908373ffffffffffffffffffffffffffffffffffffffff16021790555050565b6060611b3982612250565b6000611b43612c16565b90506000815111611b635760405180602001604052806000815250611b8e565b80611b6d84612c2d565b604051602001611b7e929190614640565b6040516020818303038152906040525b915050919050565b60008173ffffffffffffffffffffffffffffffffffffffff163373ffffffffffffffffffffffffffffffffffffffff1614611c06576040517f08c379a0000000000000000000000000000000000000000000000000000000008152600401611bfd906140b9565b60405180910390fd5b6000845111611c4a576040517f08c379a0000000000000000000000000000000000000000000000000000000008152600401611c41906146b0565b60405180910390fd5b8251845114611c8e576040517f08c379a0000000000000000000000000000000000000000000000000000000008152600401611c8590614742565b60405180910390fd5b6000609c60009054906101000a900473ffffffffffffffffffffffffffffffffffffffff1673ffffffffffffffffffffffffffffffffffffffff1663bdf1ee29846040518263ffffffff1660e01b8152600401611ceb919061346f565b602060405180830381600087803b158015611d0557600080fd5b505af1158015611d19573d6000803e3d6000fd5b505050506040513d601f19601f82011682018060405250810190611d3d9190614777565b905060005b8551811015611d9c57611d8b868281518110611d6157611d6061455d565b5b6020026020010151868381518110611d7c57611d7b61455d565b5b60200260200101518487611223565b80611d95906145bb565b9050611d42565b507fce693901f071ec112e8e26de4a385cee75c8918314838eebdb07100f7817858f81848787604051611dd294939291906147a4565b60405180910390a1809150509392505050565b609860003373ffffffffffffffffffffffffffffffffffffffff1673ffffffffffffffffffffffffffffffffffffffff16815260200190815260200160002060009054906101000a900460ff16611e71576040517f08c379a0000000000000000000000000000000000000000000000000000000008152600401611e6890613ff0565b60405180910390fd5b8173ffffffffffffffffffffffffffffffffffffffff166108fc829081150290604051600060405180830381858888f19350505050158015611eb7573d6000803e3d6000fd5b505050565b609860003373ffffffffffffffffffffffffffffffffffffffff1673ffffffffffffffffffffffffffffffffffffffff16815260200190815260200160002060009054906101000a900460ff16611f48576040517f08c379a0000000000000000000000000000000000000000000000000000000008152600401611f3f90613ff0565b60405180910390fd5b6000808373ffffffffffffffffffffffffffffffffffffffff16308685604051602401611f77939291906147f7565b6040516020818303038152906040527f23b872dd000000000000000000000000000000000000000000000000000000007bffffffffffffffffffffffffffffffffffffffffffffffffffffffff19166020820180517bffffffffffffffffffffffffffffffffffffffffffffffffffffffff83818316178352505050506040516120019190614165565b6000604051808303816000865af19150503d806000811461203e576040519150601f19603f3d011682016040523d82523d6000602084013e612043565b606091505b50915091508161205257600080fd5b60008180602001905181019061206891906141fd565b90508061207457600080fd5b505050505050565b6000606a60008473ffffffffffffffffffffffffffffffffffffffff1673ffffffffffffffffffffffffffffffffffffffff16815260200190815260200160002060008373ffffffffffffffffffffffffffffffffffffffff1673ffffffffffffffffffffffffffffffffffffffff16815260200190815260200160002060009054906101000a900460ff16905092915050565b60008273ffffffffffffffffffffffffffffffffffffffff163373ffffffffffffffffffffffffffffffffffffffff1614612180576040517f08c379a0000000000000000000000000000000000000000000000000000000008152600401612177906140b9565b60405180910390fd5b600061218c868661235c565b90508373ffffffffffffffffffffffffffffffffffffffff166121ae82611436565b73ffffffffffffffffffffffffffffffffffffffff16146121ce57600080fd5b6121d98185856126d3565b6001915050949350505050565b60007f01ffc9a7000000000000000000000000000000000000000000000000000000007bffffffffffffffffffffffffffffffffffffffffffffffffffffffff1916827bffffffffffffffffffffffffffffffffffffffffffffffffffffffff1916149050919050565b61225981612d8e565b612298576040517f08c379a000000000000000000000000000000000000000000000000000000000815260040161228f90614419565b60405180910390fd5b50565b600033905090565b816069600083815260200190815260200160002060006101000a81548173ffffffffffffffffffffffffffffffffffffffff021916908373ffffffffffffffffffffffffffffffffffffffff160217905550808273ffffffffffffffffffffffffffffffffffffffff1661231683611436565b73ffffffffffffffffffffffffffffffffffffffff167f8c5be1e5ebec7d5bd14f71427d1e84f3dd0314c0f7b2291e5b200ac8c7c3b92560405160405180910390a45050565b60006fffffffffffffffffffffffffffffffff82167fffffffffffffffffffffffffffffffff00000000000000000000000000000000700100000000000000000000000000000000856123af919061482e565b1617905092915050565b6000806123c583611436565b90508073ffffffffffffffffffffffffffffffffffffffff168473ffffffffffffffffffffffffffffffffffffffff1614806124075750612406818561207c565b5b8061244557508373ffffffffffffffffffffffffffffffffffffffff1661242d84610988565b73ffffffffffffffffffffffffffffffffffffffff16145b91505092915050565b8273ffffffffffffffffffffffffffffffffffffffff1661246e82611436565b73ffffffffffffffffffffffffffffffffffffffff16146124c4576040517f08c379a00000000000000000000000000000000000000000000000000000000081526004016124bb906148fa565b60405180910390fd5b600073ffffffffffffffffffffffffffffffffffffffff168273ffffffffffffffffffffffffffffffffffffffff161415612534576040517f08c379a000000000000000000000000000000000000000000000000000000000815260040161252b9061498c565b60405180910390fd5b61253f838383612dfa565b61254a6000826122a3565b6001606860008573ffffffffffffffffffffffffffffffffffffffff1673ffffffffffffffffffffffffffffffffffffffff168152602001908152602001600020600082825461259a91906149ac565b925050819055506001606860008473ffffffffffffffffffffffffffffffffffffffff1673ffffffffffffffffffffffffffffffffffffffff16815260200190815260200160002060008282546125f191906149e0565b92505081905550816067600083815260200190815260200160002060006101000a81548173ffffffffffffffffffffffffffffffffffffffff021916908373ffffffffffffffffffffffffffffffffffffffff160217905550808273ffffffffffffffffffffffffffffffffffffffff168473ffffffffffffffffffffffffffffffffffffffff167fddf252ad1be2c89b69c2b068fc378daa952ba7f163c4a11628f55a4df523b3ef60405160405180910390a46126b0838383612dff565b505050565b6126cf828260405180602001604052806000815250612e04565b5050565b6126de828285610e5a565b60006001609a60008573ffffffffffffffffffffffffffffffffffffffff1673ffffffffffffffffffffffffffffffffffffffff1681526020019081526020016000208054905061272f91906149ac565b9050609b600085815260200190815260200160002054609b6000609a60008773ffffffffffffffffffffffffffffffffffffffff1673ffffffffffffffffffffffffffffffffffffffff168152602001908152602001600020848154811061279a5761279961455d565b5b9060005260206000200154815260200190815260200160002081905550609a60008473ffffffffffffffffffffffffffffffffffffffff1673ffffffffffffffffffffffffffffffffffffffff16815260200190815260200160002081815481106128085761280761455d565b5b9060005260206000200154609a60008573ffffffffffffffffffffffffffffffffffffffff1673ffffffffffffffffffffffffffffffffffffffff168152602001908152602001600020609b600087815260200190815260200160002054815481106128775761287661455d565b5b9060005260206000200181905550609a60008473ffffffffffffffffffffffffffffffffffffffff1673ffffffffffffffffffffffffffffffffffffffff1681526020019081526020016000208054806128d4576128d3614a36565b5b60019003818190600052602060002001600090559055609a60008373ffffffffffffffffffffffffffffffffffffffff1673ffffffffffffffffffffffffffffffffffffffff16815260200190815260200160002080549050609b600086815260200190815260200160002081905550609a60008373ffffffffffffffffffffffffffffffffffffffff1673ffffffffffffffffffffffffffffffffffffffff1681526020019081526020016000208490806001815401808255809150506001900390600052602060002001600090919091909150557f829f37f5e5f00ab285057d55f252993499457a403243409943bf7e7b26049f0f8484846040516129dd93929190614a65565b60405180910390a150505050565b6000806000612a1f60807fffffffffffffffffffffffffffffffff000000000000000000000000000000008616901c612e5f565b90506000612a3e6fffffffffffffffffffffffffffffffff8616612e5f565b90508181935093505050915091565b8173ffffffffffffffffffffffffffffffffffffffff168373ffffffffffffffffffffffffffffffffffffffff161415612abc576040517f08c379a0000000000000000000000000000000000000000000000000000000008152600401612ab390614ae8565b60405180910390fd5b80606a60008573ffffffffffffffffffffffffffffffffffffffff1673ffffffffffffffffffffffffffffffffffffffff16815260200190815260200160002060008473ffffffffffffffffffffffffffffffffffffffff1673ffffffffffffffffffffffffffffffffffffffff16815260200190815260200160002060006101000a81548160ff0219169083151502179055508173ffffffffffffffffffffffffffffffffffffffff168373ffffffffffffffffffffffffffffffffffffffff167f17307eab39ab6107e8899845ad3d59bd9653f200f220920489ca2b5937696c3183604051612bad91906132f5565b60405180910390a3505050565b612bc584848461244e565b612bd184848484612ead565b612c10576040517f08c379a0000000000000000000000000000000000000000000000000000000008152600401612c0790614b7a565b60405180910390fd5b50505050565b606060405180602001604052806000815250905090565b60606000821415612c75576040518060400160405280600181526020017f30000000000000000000000000000000000000000000000000000000000000008152509050612d89565b600082905060005b60008214612ca7578080612c90906145bb565b915050600a82612ca09190614bc9565b9150612c7d565b60008167ffffffffffffffff811115612cc357612cc26139d8565b5b6040519080825280601f01601f191660200182016040528015612cf55781602001600182028036833780820191505090505b5090505b60008514612d8257600182612d0e91906149ac565b9150600a85612d1d9190614bfa565b6030612d2991906149e0565b60f81b818381518110612d3f57612d3e61455d565b5b60200101907effffffffffffffffffffffffffffffffffffffffffffffffffffffffffffff1916908160001a905350600a85612d7b9190614bc9565b9450612cf9565b8093505050505b919050565b60008073ffffffffffffffffffffffffffffffffffffffff166067600084815260200190815260200160002060009054906101000a900473ffffffffffffffffffffffffffffffffffffffff1673ffffffffffffffffffffffffffffffffffffffff1614159050919050565b505050565b505050565b612e0e8383613044565b612e1b6000848484612ead565b612e5a576040517f08c379a0000000000000000000000000000000000000000000000000000000008152600401612e5190614b7a565b60405180910390fd5b505050565b6000806f80000000000000000000000000000000831614612ea4577fffffffffffffffffffffffffffffffff0000000000000000000000000000000082179050612ea8565b8190505b919050565b6000612ece8473ffffffffffffffffffffffffffffffffffffffff1661321e565b15613037578373ffffffffffffffffffffffffffffffffffffffff1663150b7a02612ef761229b565b8786866040518563ffffffff1660e01b8152600401612f199493929190614c75565b602060405180830381600087803b158015612f3357600080fd5b505af1925050508015612f6457506040513d601f19601f82011682018060405250810190612f619190614cd6565b60015b612fe7573d8060008114612f94576040519150601f19603f3d011682016040523d82523d6000602084013e612f99565b606091505b50600081511415612fdf576040517f08c379a0000000000000000000000000000000000000000000000000000000008152600401612fd690614b7a565b60405180910390fd5b805181602001fd5b63150b7a0260e01b7bffffffffffffffffffffffffffffffffffffffffffffffffffffffff1916817bffffffffffffffffffffffffffffffffffffffffffffffffffffffff19161491505061303c565b600190505b949350505050565b600073ffffffffffffffffffffffffffffffffffffffff168273ffffffffffffffffffffffffffffffffffffffff1614156130b4576040517f08c379a00000000000000000000000000000000000000000000000000000000081526004016130ab90614d4f565b60405180910390fd5b6130bd81612d8e565b156130fd576040517f08c379a00000000000000000000000000000000000000000000000000000000081526004016130f490614dbb565b60405180910390fd5b61310960008383612dfa565b6001606860008473ffffffffffffffffffffffffffffffffffffffff1673ffffffffffffffffffffffffffffffffffffffff168152602001908152602001600020600082825461315991906149e0565b92505081905550816067600083815260200190815260200160002060006101000a81548173ffffffffffffffffffffffffffffffffffffffff021916908373ffffffffffffffffffffffffffffffffffffffff160217905550808273ffffffffffffffffffffffffffffffffffffffff16600073ffffffffffffffffffffffffffffffffffffffff167fddf252ad1be2c89b69c2b068fc378daa952ba7f163c4a11628f55a4df523b3ef60405160405180910390a461321a60008383612dff565b5050565b6000808273ffffffffffffffffffffffffffffffffffffffff163b119050919050565b6000604051905090565b600080fd5b600080fd5b60007fffffffff0000000000000000000000000000000000000000000000000000000082169050919050565b61328a81613255565b811461329557600080fd5b50565b6000813590506132a781613281565b92915050565b6000602082840312156132c3576132c261324b565b5b60006132d184828501613298565b91505092915050565b60008115159050919050565b6132ef816132da565b82525050565b600060208201905061330a60008301846132e6565b92915050565b600081519050919050565b600082825260208201905092915050565b60005b8381101561334a57808201518184015260208101905061332f565b83811115613359576000848401525b50505050565b6000601f19601f8301169050919050565b600061337b82613310565b613385818561331b565b935061339581856020860161332c565b61339e8161335f565b840191505092915050565b600060208201905081810360008301526133c38184613370565b905092915050565b6000819050919050565b6133de816133cb565b81146133e957600080fd5b50565b6000813590506133fb816133d5565b92915050565b6000602082840312156134175761341661324b565b5b6000613425848285016133ec565b91505092915050565b600073ffffffffffffffffffffffffffffffffffffffff82169050919050565b60006134598261342e565b9050919050565b6134698161344e565b82525050565b60006020820190506134846000830184613460565b92915050565b6134938161344e565b811461349e57600080fd5b50565b6000813590506134b08161348a565b92915050565b600080604083850312156134cd576134cc61324b565b5b60006134db858286016134a1565b92505060206134ec858286016133ec565b9150509250929050565b6000819050919050565b613509816134f6565b811461351457600080fd5b50565b60008135905061352681613500565b92915050565b6000806000606084860312156135455761354461324b565b5b600061355386828701613517565b935050602061356486828701613517565b9250506040613575868287016133ec565b9150509250925092565b600080fd5b600080fd5b600080fd5b60008083601f8401126135a4576135a361357f565b5b8235905067ffffffffffffffff8111156135c1576135c0613584565b5b6020830191508360018202830111156135dd576135dc613589565b5b9250929050565b600080600080600060808688031215613600576135ff61324b565b5b600061360e888289016134a1565b955050602061361f888289016134a1565b9450506040613630888289016133ec565b935050606086013567ffffffffffffffff81111561365157613650613250565b5b61365d8882890161358e565b92509250509295509295909350565b61367581613255565b82525050565b6000602082019050613690600083018461366c565b92915050565b6000806000606084860312156136af576136ae61324b565b5b60006136bd86828701613517565b93505060206136ce86828701613517565b92505060406136df868287016134a1565b9150509250925092565b6000806000606084860312156137025761370161324b565b5b6000613710868287016134a1565b9350506020613721868287016134a1565b9250506040613732868287016133ec565b9150509250925092565b6000602082840312156137525761375161324b565b5b6000613760848285016134a1565b91505092915050565b600080604083850312156137805761377f61324b565b5b600061378e85828601613517565b925050602061379f85828601613517565b9150509250929050565b6137b2816133cb565b82525050565b60006020820190506137cd60008301846137a9565b92915050565b600080600080608085870312156137ed576137ec61324b565b5b60006137fb87828801613517565b945050602061380c87828801613517565b935050604061381d878288016133ec565b925050606061382e878288016134a1565b91505092959194509250565b600081519050919050565b600082825260208201905092915050565b6000819050602082019050919050565b61386f816134f6565b82525050565b60006138818383613866565b60208301905092915050565b6000602082019050919050565b60006138a58261383a565b6138af8185613845565b93506138ba83613856565b8060005b838110156138eb5781516138d28882613875565b97506138dd8361388d565b9250506001810190506138be565b5085935050505092915050565b60006040820190508181036000830152613912818561389a565b90508181036020830152613926818461389a565b90509392505050565b613938816132da565b811461394357600080fd5b50565b6000813590506139558161392f565b92915050565b600080604083850312156139725761397161324b565b5b6000613980858286016134a1565b925050602061399185828601613946565b9150509250929050565b6139a4816134f6565b82525050565b60006040820190506139bf600083018561399b565b6139cc602083018461399b565b9392505050565b600080fd5b7f4e487b7100000000000000000000000000000000000000000000000000000000600052604160045260246000fd5b613a108261335f565b810181811067ffffffffffffffff82111715613a2f57613a2e6139d8565b5b80604052505050565b6000613a42613241565b9050613a4e8282613a07565b919050565b600067ffffffffffffffff821115613a6e57613a6d6139d8565b5b613a778261335f565b9050602081019050919050565b82818337600083830152505050565b6000613aa6613aa184613a53565b613a38565b905082815260208101848484011115613ac257613ac16139d3565b5b613acd848285613a84565b509392505050565b600082601f830112613aea57613ae961357f565b5b8135613afa848260208601613a93565b91505092915050565b60008060008060808587031215613b1d57613b1c61324b565b5b6000613b2b878288016134a1565b9450506020613b3c878288016134a1565b9350506040613b4d878288016133ec565b925050606085013567ffffffffffffffff811115613b6e57613b6d613250565b5b613b7a87828801613ad5565b91505092959194509250565b600067ffffffffffffffff821115613ba157613ba06139d8565b5b602082029050602081019050919050565b6000613bc5613bc084613b86565b613a38565b90508083825260208201905060208402830185811115613be857613be7613589565b5b835b81811015613c115780613bfd8882613517565b845260208401935050602081019050613bea565b5050509392505050565b600082601f830112613c3057613c2f61357f565b5b8135613c40848260208601613bb2565b91505092915050565b600080600060608486031215613c6257613c6161324b565b5b600084013567ffffffffffffffff811115613c8057613c7f613250565b5b613c8c86828701613c1b565b935050602084013567ffffffffffffffff811115613cad57613cac613250565b5b613cb986828701613c1b565b9250506040613cca868287016134a1565b9150509250925092565b6000613cdf8261342e565b9050919050565b613cef81613cd4565b8114613cfa57600080fd5b50565b600081359050613d0c81613ce6565b92915050565b60008060408385031215613d2957613d2861324b565b5b6000613d3785828601613cfd565b9250506020613d48858286016133ec565b9150509250929050565b60008060408385031215613d6957613d6861324b565b5b6000613d77858286016134a1565b9250506020613d88858286016134a1565b9150509250929050565b60008060008060808587031215613dac57613dab61324b565b5b6000613dba87828801613517565b9450506020613dcb87828801613517565b9350506040613ddc878288016134a1565b9250506060613ded878288016134a1565b91505092959194509250565b7f4e487b7100000000000000000000000000000000000000000000000000000000600052602260045260246000fd5b60006002820490506001821680613e4057607f821691505b60208210811415613e5457613e53613df9565b5b50919050565b7f4552433732313a20617070726f76616c20746f2063757272656e74206f776e6560008201527f7200000000000000000000000000000000000000000000000000000000000000602082015250565b6000613eb660218361331b565b9150613ec182613e5a565b604082019050919050565b60006020820190508181036000830152613ee581613ea9565b9050919050565b7f4552433732313a20617070726f76652063616c6c6572206973206e6f7420746f60008201527f6b656e206f776e6572206e6f7220617070726f76656420666f7220616c6c0000602082015250565b6000613f48603e8361331b565b9150613f5382613eec565b604082019050919050565b60006020820190508181036000830152613f7781613f3b565b9050919050565b7f4f6e6c7920616e206f776e65722063616e2063616c6c20746869732066756e6360008201527f74696f6e00000000000000000000000000000000000000000000000000000000602082015250565b6000613fda60248361331b565b9150613fe582613f7e565b604082019050919050565b6000602082019050818103600083015261400981613fcd565b9050919050565b600060608201905061402560008301866137a9565b61403260208301856137a9565b61403f60408301846137a9565b949350505050565b7f43616c6c696e67206f6e20626568616c66206f66206f7468657220757365722060008201527f6973206e6f7420617661696c61626c6500000000000000000000000000000000602082015250565b60006140a360308361331b565b91506140ae82614047565b604082019050919050565b600060208201905081810360008301526140d281614096565b9050919050565b60006080820190506140ee600083018761399b565b6140fb602083018661399b565b6141086040830185613460565b6141156060830184613460565b95945050505050565b600081519050919050565b600081905092915050565b600061413f8261411e565b6141498185614129565b935061415981856020860161332c565b80840191505092915050565b60006141718284614134565b915081905092915050565b7f496e6e6572207472616e73616374696f6e204661696c65640000000000000000600082015250565b60006141b260188361331b565b91506141bd8261417c565b602082019050919050565b600060208201905081810360008301526141e1816141a5565b9050919050565b6000815190506141f78161392f565b92915050565b6000602082840312156142135761421261324b565b5b6000614221848285016141e8565b91505092915050565b600060608201905061423f60008301866137a9565b61424c6020830185613460565b61425960408301846137a9565b949350505050565b7f4552433732313a2063616c6c6572206973206e6f7420746f6b656e206f776e6560008201527f72206e6f7220617070726f766564000000000000000000000000000000000000602082015250565b60006142bd602e8361331b565b91506142c882614261565b604082019050919050565b600060208201905081810360008301526142ec816142b0565b9050919050565b600060608201905061430860008301866137a9565b61431560208301856137a9565b6143226040830184613460565b949350505050565b7f4c616e64206973206e6f74206f776e6564206279207468652073656e64657200600082015250565b6000614360601f8361331b565b915061436b8261432a565b602082019050919050565b6000602082019050818103600083015261438f81614353565b9050919050565b60006060820190506143ab6000830186613460565b6143b860208301856137a9565b6143c560408301846137a9565b949350505050565b7f4552433732313a20696e76616c696420746f6b656e2049440000000000000000600082015250565b600061440360188361331b565b915061440e826143cd565b602082019050919050565b60006020820190508181036000830152614432816143f6565b9050919050565b7f4f6e6c7920636f6e7472616374206465706c6f7965722063616e2063616c6c2060008201527f746869732066756e6374696f6e00000000000000000000000000000000000000602082015250565b6000614495602d8361331b565b91506144a082614439565b604082019050919050565b600060208201905081810360008301526144c481614488565b9050919050565b7f4552433732313a2061646472657373207a65726f206973206e6f74206120766160008201527f6c6964206f776e65720000000000000000000000000000000000000000000000602082015250565b600061452760298361331b565b9150614532826144cb565b604082019050919050565b600060208201905081810360008301526145568161451a565b9050919050565b7f4e487b7100000000000000000000000000000000000000000000000000000000600052603260045260246000fd5b7f4e487b7100000000000000000000000000000000000000000000000000000000600052601160045260246000fd5b60006145c6826133cb565b91507fffffffffffffffffffffffffffffffffffffffffffffffffffffffffffffffff8214156145f9576145f861458c565b5b600182019050919050565b600081905092915050565b600061461a82613310565b6146248185614604565b935061463481856020860161332c565b80840191505092915050565b600061464c828561460f565b9150614658828461460f565b91508190509392505050565b7f54686572652073686f756c64206265206174206c656173742031206c616e6400600082015250565b600061469a601f8361331b565b91506146a582614664565b602082019050919050565b600060208201905081810360008301526146c98161468d565b9050919050565b7f5820616e64205920706f696e74732073686f756c64206861766520657175616c60008201527f206c656e67746800000000000000000000000000000000000000000000000000602082015250565b600061472c60278361331b565b9150614737826146d0565b604082019050919050565b6000602082019050818103600083015261475b8161471f565b9050919050565b600081519050614771816133d5565b92915050565b60006020828403121561478d5761478c61324b565b5b600061479b84828501614762565b91505092915050565b60006080820190506147b960008301876137a9565b6147c66020830186613460565b81810360408301526147d8818561389a565b905081810360608301526147ec818461389a565b905095945050505050565b600060608201905061480c6000830186613460565b6148196020830185613460565b61482660408301846137a9565b949350505050565b6000614839826133cb565b9150614844836133cb565b9250817fffffffffffffffffffffffffffffffffffffffffffffffffffffffffffffffff048311821515161561487d5761487c61458c565b5b828202905092915050565b7f4552433732313a207472616e736665722066726f6d20696e636f72726563742060008201527f6f776e6572000000000000000000000000000000000000000000000000000000602082015250565b60006148e460258361331b565b91506148ef82614888565b604082019050919050565b60006020820190508181036000830152614913816148d7565b9050919050565b7f4552433732313a207472616e7366657220746f20746865207a65726f2061646460008201527f7265737300000000000000000000000000000000000000000000000000000000602082015250565b600061497660248361331b565b91506149818261491a565b604082019050919050565b600060208201905081810360008301526149a581614969565b9050919050565b60006149b7826133cb565b91506149c2836133cb565b9250828210156149d5576149d461458c565b5b828203905092915050565b60006149eb826133cb565b91506149f6836133cb565b9250827fffffffffffffffffffffffffffffffffffffffffffffffffffffffffffffffff03821115614a2b57614a2a61458c565b5b828201905092915050565b7f4e487b7100000000000000000000000000000000000000000000000000000000600052603160045260246000fd5b6000606082019050614a7a60008301866137a9565b614a876020830185613460565b614a946040830184613460565b949350505050565b7f4552433732313a20617070726f766520746f2063616c6c657200000000000000600082015250565b6000614ad260198361331b565b9150614add82614a9c565b602082019050919050565b60006020820190508181036000830152614b0181614ac5565b9050919050565b7f4552433732313a207472616e7366657220746f206e6f6e20455243373231526560008201527f63656976657220696d706c656d656e7465720000000000000000000000000000602082015250565b6000614b6460328361331b565b9150614b6f82614b08565b604082019050919050565b60006020820190508181036000830152614b9381614b57565b9050919050565b7f4e487b7100000000000000000000000000000000000000000000000000000000600052601260045260246000fd5b6000614bd4826133cb565b9150614bdf836133cb565b925082614bef57614bee614b9a565b5b828204905092915050565b6000614c05826133cb565b9150614c10836133cb565b925082614c2057614c1f614b9a565b5b828206905092915050565b600082825260208201905092915050565b6000614c478261411e565b614c518185614c2b565b9350614c6181856020860161332c565b614c6a8161335f565b840191505092915050565b6000608082019050614c8a6000830187613460565b614c976020830186613460565b614ca460408301856137a9565b8181036060830152614cb68184614c3c565b905095945050505050565b600081519050614cd081613281565b92915050565b600060208284031215614cec57614ceb61324b565b5b6000614cfa84828501614cc1565b91505092915050565b7f4552433732313a206d696e7420746f20746865207a65726f2061646472657373600082015250565b6000614d3960208361331b565b9150614d4482614d03565b602082019050919050565b60006020820190508181036000830152614d6881614d2c565b9050919050565b7f4552433732313a20746f6b656e20616c7265616479206d696e74656400000000600082015250565b6000614da5601c8361331b565b9150614db082614d6f565b602082019050919050565b60006020820190508181036000830152614dd481614d98565b905091905056fea2646970667358221220aa21fe3d3c6e341a8b5084fb32baa651862fd0c65bf5ed617b6ac6f93f6477b664736f6c63430008090033",
  "linkReferences": {},
  "deployedLinkReferences": {}
}