{
  "_format": "hh-sol-artifact-1",
  "contractName": "NameNFT",
  "sourceName": "contracts/names/NameNFTRegistry.sol",
  "abi": [
    {
      "anonymous": false,
      "inputs": [
        {
          "indexed": true,
          "internalType": "address",
          "name": "owner",
          "type": "address"
        },
        {
          "indexed": true,
          "internalType": "address",
          "name": "approved",
          "type": "address"
        },
        {
          "indexed": true,
          "internalType": "uint256",
          "name": "tokenId",
          "type": "uint256"
        }
      ],
      "name": "Approval",
      "type": "event"
    },
    {
      "anonymous": false,
      "inputs": [
        {
          "indexed": true,
          "internalType": "address",
          "name": "owner",
          "type": "address"
        },
        {
          "indexed": true,
          "internalType": "address",
          "name": "operator",
          "type": "address"
        },
        {
          "indexed": false,
          "internalType": "bool",
          "name": "approved",
          "type": "bool"
        }
      ],
      "name": "ApprovalForAll",
      "type": "event"
    },
    {
      "anonymous": false,
      "inputs": [
        {
          "indexed": false,
          "internalType": "uint8",
          "name": "version",
          "type": "uint8"
        }
      ],
      "name": "Initialized",
      "type": "event"
    },
    {
      "anonymous": false,
      "inputs": [
        {
          "indexed": true,
          "internalType": "address",
          "name": "from",
          "type": "address"
        },
        {
          "indexed": true,
          "internalType": "address",
          "name": "to",
          "type": "address"
        },
        {
          "indexed": true,
          "internalType": "uint256",
          "name": "tokenId",
          "type": "uint256"
        }
      ],
      "name": "Transfer",
      "type": "event"
    },
    {
      "inputs": [
        {
          "internalType": "address",
          "name": "owner",
          "type": "address"
        }
      ],
      "name": "addOwner",
      "outputs": [],
      "stateMutability": "nonpayable",
      "type": "function"
    },
    {
      "inputs": [
        {
          "internalType": "address",
          "name": "to",
          "type": "address"
        },
        {
          "internalType": "uint256",
          "name": "tokenId",
          "type": "uint256"
        }
      ],
      "name": "approve",
      "outputs": [],
      "stateMutability": "nonpayable",
      "type": "function"
    },
    {
      "inputs": [
        {
          "internalType": "address",
          "name": "owner",
          "type": "address"
        }
      ],
      "name": "balanceOf",
      "outputs": [
        {
          "internalType": "uint256",
          "name": "",
          "type": "uint256"
        }
      ],
      "stateMutability": "view",
      "type": "function"
    },
    {
      "inputs": [
        {
          "internalType": "uint256",
          "name": "tokenID",
          "type": "uint256"
        },
        {
          "internalType": "string",
          "name": "newNFTName",
          "type": "string"
        }
      ],
      "name": "editName",
      "outputs": [],
      "stateMutability": "payable",
      "type": "function"
    },
    {
      "inputs": [
        {
          "internalType": "address",
          "name": "sendTo",
          "type": "address"
        },
        {
          "internalType": "address",
          "name": "token",
          "type": "address"
        },
        {
          "internalType": "uint256",
          "name": "value",
          "type": "uint256"
        }
      ],
      "name": "extractERC20Token",
      "outputs": [],
      "stateMutability": "nonpayable",
      "type": "function"
    },
    {
      "inputs": [
        {
          "internalType": "address payable",
          "name": "sendTo",
          "type": "address"
        },
        {
          "internalType": "uint256",
          "name": "value",
          "type": "uint256"
        }
      ],
      "name": "extractETH",
      "outputs": [],
      "stateMutability": "nonpayable",
      "type": "function"
    },
    {
      "inputs": [
        {
          "internalType": "uint256",
          "name": "tokenId",
          "type": "uint256"
        }
      ],
      "name": "getApproved",
      "outputs": [
        {
          "internalType": "address",
          "name": "",
          "type": "address"
        }
      ],
      "stateMutability": "view",
      "type": "function"
    },
    {
      "inputs": [
        {
          "internalType": "uint256",
          "name": "tokenID",
          "type": "uint256"
        }
      ],
      "name": "getName",
      "outputs": [
        {
          "internalType": "string",
          "name": "",
          "type": "string"
        }
      ],
      "stateMutability": "view",
      "type": "function"
    },
    {
      "inputs": [
        {
          "internalType": "string",
          "name": "name_",
          "type": "string"
        },
        {
          "internalType": "string",
          "name": "symbol_",
          "type": "string"
        }
      ],
      "name": "initialize",
      "outputs": [],
      "stateMutability": "nonpayable",
      "type": "function"
    },
    {
      "inputs": [
        {
          "internalType": "address",
          "name": "owner",
          "type": "address"
        },
        {
          "internalType": "address",
          "name": "operator",
          "type": "address"
        }
      ],
      "name": "isApprovedForAll",
      "outputs": [
        {
          "internalType": "bool",
          "name": "",
          "type": "bool"
        }
      ],
      "stateMutability": "view",
      "type": "function"
    },
    {
      "inputs": [
        {
          "internalType": "address",
          "name": "check",
          "type": "address"
        }
      ],
      "name": "isOwner",
      "outputs": [
        {
          "internalType": "bool",
          "name": "",
          "type": "bool"
        }
      ],
      "stateMutability": "view",
      "type": "function"
    },
    {
      "inputs": [
        {
          "internalType": "address",
          "name": "to",
          "type": "address"
        },
        {
          "internalType": "uint256",
          "name": "tokenID",
          "type": "uint256"
        },
        {
          "internalType": "string",
          "name": "NFTname",
          "type": "string"
        }
      ],
      "name": "mint",
      "outputs": [],
      "stateMutability": "nonpayable",
      "type": "function"
    },
    {
      "inputs": [],
      "name": "name",
      "outputs": [
        {
          "internalType": "string",
          "name": "",
          "type": "string"
        }
      ],
      "stateMutability": "view",
      "type": "function"
    },
    {
      "inputs": [
        {
          "internalType": "uint256",
          "name": "tokenId",
          "type": "uint256"
        }
      ],
      "name": "ownerOf",
      "outputs": [
        {
          "internalType": "address",
          "name": "",
          "type": "address"
        }
      ],
      "stateMutability": "view",
      "type": "function"
    },
    {
      "inputs": [
        {
          "internalType": "address",
          "name": "owner",
          "type": "address"
        }
      ],
      "name": "revokeOwner",
      "outputs": [],
      "stateMutability": "nonpayable",
      "type": "function"
    },
    {
      "inputs": [
        {
          "internalType": "address",
          "name": "from",
          "type": "address"
        },
        {
          "internalType": "address",
          "name": "to",
          "type": "address"
        },
        {
          "internalType": "uint256",
          "name": "tokenId",
          "type": "uint256"
        }
      ],
      "name": "safeTransferFrom",
      "outputs": [],
      "stateMutability": "nonpayable",
      "type": "function"
    },
    {
      "inputs": [
        {
          "internalType": "address",
          "name": "from",
          "type": "address"
        },
        {
          "internalType": "address",
          "name": "to",
          "type": "address"
        },
        {
          "internalType": "uint256",
          "name": "tokenId",
          "type": "uint256"
        },
        {
          "internalType": "bytes",
          "name": "data",
          "type": "bytes"
        }
      ],
      "name": "safeTransferFrom",
      "outputs": [],
      "stateMutability": "nonpayable",
      "type": "function"
    },
    {
      "inputs": [
        {
          "internalType": "address",
          "name": "operator",
          "type": "address"
        },
        {
          "internalType": "bool",
          "name": "approved",
          "type": "bool"
        }
      ],
      "name": "setApprovalForAll",
      "outputs": [],
      "stateMutability": "nonpayable",
      "type": "function"
    },
    {
      "inputs": [
        {
          "internalType": "bytes4",
          "name": "interfaceId",
          "type": "bytes4"
        }
      ],
      "name": "supportsInterface",
      "outputs": [
        {
          "internalType": "bool",
          "name": "",
          "type": "bool"
        }
      ],
      "stateMutability": "view",
      "type": "function"
    },
    {
      "inputs": [],
      "name": "symbol",
      "outputs": [
        {
          "internalType": "string",
          "name": "",
          "type": "string"
        }
      ],
      "stateMutability": "view",
      "type": "function"
    },
    {
      "inputs": [
        {
          "internalType": "uint256",
          "name": "tokenId",
          "type": "uint256"
        }
      ],
      "name": "tokenURI",
      "outputs": [
        {
          "internalType": "string",
          "name": "",
          "type": "string"
        }
      ],
      "stateMutability": "view",
      "type": "function"
    },
    {
      "inputs": [
        {
          "internalType": "address",
          "name": "from",
          "type": "address"
        },
        {
          "internalType": "address",
          "name": "to",
          "type": "address"
        },
        {
          "internalType": "uint256",
          "name": "tokenId",
          "type": "uint256"
        }
      ],
      "name": "transferFrom",
      "outputs": [],
      "stateMutability": "nonpayable",
      "type": "function"
    }
  ],
  "bytecode": "0x608060405234801561001057600080fd5b5033609760006101000a81548173ffffffffffffffffffffffffffffffffffffffff021916908373ffffffffffffffffffffffffffffffffffffffff1602179055506001609860003373ffffffffffffffffffffffffffffffffffffffff1673ffffffffffffffffffffffffffffffffffffffff16815260200190815260200160002060006101000a81548160ff021916908315150217905550613774806100b96000396000f3fe6080604052600436106101355760003560e01c80636d151101116100ab578063b88d4fde1161006f578063b88d4fde14610439578063c87b56dd14610462578063d3fc98641461049f578063daa82a56146104c8578063dae388e6146104f1578063e985e9c51461051a57610135565b80636d151101146103565780637065cb481461037f57806370a08231146103a857806395d89b41146103e5578063a22cb4651461041057610135565b806323b872dd116100fd57806323b872dd146102245780632f54bf6e1461024d57806342842e0e1461028a5780634cd88b76146102b35780636352211e146102dc5780636b8ff5741461031957610135565b806301ffc9a71461013a57806306fdde0314610177578063081812fc146101a2578063095ea7b3146101df578063096d798c14610208575b600080fd5b34801561014657600080fd5b50610161600480360381019061015c919061225e565b610557565b60405161016e91906122a6565b60405180910390f35b34801561018357600080fd5b5061018c610639565b604051610199919061235a565b60405180910390f35b3480156101ae57600080fd5b506101c960048036038101906101c491906123b2565b6106cb565b6040516101d69190612420565b60405180910390f35b3480156101eb57600080fd5b5061020660048036038101906102019190612467565b610711565b005b610222600480360381019061021d91906125dc565b610829565b005b34801561023057600080fd5b5061024b60048036038101906102469190612638565b6108de565b005b34801561025957600080fd5b50610274600480360381019061026f919061268b565b61093e565b60405161028191906122a6565b60405180910390f35b34801561029657600080fd5b506102b160048036038101906102ac9190612638565b610994565b005b3480156102bf57600080fd5b506102da60048036038101906102d591906126b8565b6109b4565b005b3480156102e857600080fd5b5061030360048036038101906102fe91906123b2565b610af6565b6040516103109190612420565b60405180910390f35b34801561032557600080fd5b50610340600480360381019061033b91906123b2565b610ba8565b60405161034d919061235a565b60405180910390f35b34801561036257600080fd5b5061037d6004803603810190610378919061268b565b610c4d565b005b34801561038b57600080fd5b506103a660048036038101906103a1919061268b565b610d38565b005b3480156103b457600080fd5b506103cf60048036038101906103ca919061268b565b610e23565b6040516103dc919061273f565b60405180910390f35b3480156103f157600080fd5b506103fa610edb565b604051610407919061235a565b60405180910390f35b34801561041c57600080fd5b5061043760048036038101906104329190612786565b610f6d565b005b34801561044557600080fd5b50610460600480360381019061045b9190612867565b610f83565b005b34801561046e57600080fd5b50610489600480360381019061048491906123b2565b610fe5565b604051610496919061235a565b60405180910390f35b3480156104ab57600080fd5b506104c660048036038101906104c191906128ea565b61104d565b005b3480156104d457600080fd5b506104ef60048036038101906104ea9190612997565b611110565b005b3480156104fd57600080fd5b5061051860048036038101906105139190612638565b6111e7565b005b34801561052657600080fd5b50610541600480360381019061053c91906129d7565b6113a7565b60405161054e91906122a6565b60405180910390f35b60007f80ac58cd000000000000000000000000000000000000000000000000000000007bffffffffffffffffffffffffffffffffffffffffffffffffffffffff1916827bffffffffffffffffffffffffffffffffffffffffffffffffffffffff1916148061062257507f5b5e139f000000000000000000000000000000000000000000000000000000007bffffffffffffffffffffffffffffffffffffffffffffffffffffffff1916827bffffffffffffffffffffffffffffffffffffffffffffffffffffffff1916145b8061063257506106318261143b565b5b9050919050565b60606065805461064890612a46565b80601f016020809104026020016040519081016040528092919081815260200182805461067490612a46565b80156106c15780601f10610696576101008083540402835291602001916106c1565b820191906000526020600020905b8154815290600101906020018083116106a457829003601f168201915b5050505050905090565b60006106d6826114a5565b6069600083815260200190815260200160002060009054906101000a900473ffffffffffffffffffffffffffffffffffffffff169050919050565b600061071c82610af6565b90508073ffffffffffffffffffffffffffffffffffffffff168373ffffffffffffffffffffffffffffffffffffffff16141561078d576040517f08c379a000000000000000000000000000000000000000000000000000000000815260040161078490612aea565b60405180910390fd5b8073ffffffffffffffffffffffffffffffffffffffff166107ac6114f0565b73ffffffffffffffffffffffffffffffffffffffff1614806107db57506107da816107d56114f0565b6113a7565b5b61081a576040517f08c379a000000000000000000000000000000000000000000000000000000000815260040161081190612b7c565b60405180910390fd5b61082483836114f8565b505050565b662386f26fc10000341461083c57600080fd5b3373ffffffffffffffffffffffffffffffffffffffff1661085c83610af6565b73ffffffffffffffffffffffffffffffffffffffff16146108b2576040517f08c379a00000000000000000000000000000000000000000000000000000000081526004016108a990612c0e565b60405180910390fd5b806099600084815260200190815260200160002090805190602001906108d992919061214f565b505050565b6108ef6108e96114f0565b826115b1565b61092e576040517f08c379a000000000000000000000000000000000000000000000000000000000815260040161092590612ca0565b60405180910390fd5b610939838383611646565b505050565b6000609860008373ffffffffffffffffffffffffffffffffffffffff1673ffffffffffffffffffffffffffffffffffffffff16815260200190815260200160002060009054906101000a900460ff169050919050565b6109af83838360405180602001604052806000815250610f83565b505050565b60008060019054906101000a900460ff161590508080156109e55750600160008054906101000a900460ff1660ff16105b80610a1257506109f4306118ad565b158015610a115750600160008054906101000a900460ff1660ff16145b5b610a51576040517f08c379a0000000000000000000000000000000000000000000000000000000008152600401610a4890612d32565b60405180910390fd5b60016000806101000a81548160ff021916908360ff1602179055508015610a8e576001600060016101000a81548160ff0219169083151502179055505b610a9883836118d0565b8015610af15760008060016101000a81548160ff0219169083151502179055507f7f26b83ff96e1f2b6a682f133852f6798a09c465da95921460cefb38474024986001604051610ae89190612da4565b60405180910390a15b505050565b6000806067600084815260200190815260200160002060009054906101000a900473ffffffffffffffffffffffffffffffffffffffff169050600073ffffffffffffffffffffffffffffffffffffffff168173ffffffffffffffffffffffffffffffffffffffff161415610b9f576040517f08c379a0000000000000000000000000000000000000000000000000000000008152600401610b9690612e0b565b60405180910390fd5b80915050919050565b6060609960008381526020019081526020016000208054610bc890612a46565b80601f0160208091040260200160405190810160405280929190818152602001828054610bf490612a46565b8015610c415780601f10610c1657610100808354040283529160200191610c41565b820191906000526020600020905b815481529060010190602001808311610c2457829003601f168201915b50505050509050919050565b609760009054906101000a900473ffffffffffffffffffffffffffffffffffffffff1673ffffffffffffffffffffffffffffffffffffffff163373ffffffffffffffffffffffffffffffffffffffff1614610cdd576040517f08c379a0000000000000000000000000000000000000000000000000000000008152600401610cd490612e9d565b60405180910390fd5b6000609860008373ffffffffffffffffffffffffffffffffffffffff1673ffffffffffffffffffffffffffffffffffffffff16815260200190815260200160002060006101000a81548160ff02191690831515021790555050565b609760009054906101000a900473ffffffffffffffffffffffffffffffffffffffff1673ffffffffffffffffffffffffffffffffffffffff163373ffffffffffffffffffffffffffffffffffffffff1614610dc8576040517f08c379a0000000000000000000000000000000000000000000000000000000008152600401610dbf90612e9d565b60405180910390fd5b6001609860008373ffffffffffffffffffffffffffffffffffffffff1673ffffffffffffffffffffffffffffffffffffffff16815260200190815260200160002060006101000a81548160ff02191690831515021790555050565b60008073ffffffffffffffffffffffffffffffffffffffff168273ffffffffffffffffffffffffffffffffffffffff161415610e94576040517f08c379a0000000000000000000000000000000000000000000000000000000008152600401610e8b90612f2f565b60405180910390fd5b606860008373ffffffffffffffffffffffffffffffffffffffff1673ffffffffffffffffffffffffffffffffffffffff168152602001908152602001600020549050919050565b606060668054610eea90612a46565b80601f0160208091040260200160405190810160405280929190818152602001828054610f1690612a46565b8015610f635780601f10610f3857610100808354040283529160200191610f63565b820191906000526020600020905b815481529060010190602001808311610f4657829003601f168201915b5050505050905090565b610f7f610f786114f0565b838361192d565b5050565b610f94610f8e6114f0565b836115b1565b610fd3576040517f08c379a0000000000000000000000000000000000000000000000000000000008152600401610fca90612ca0565b60405180910390fd5b610fdf84848484611a9a565b50505050565b6060610ff0826114a5565b6000610ffa611af6565b9050600081511161101a5760405180602001604052806000815250611045565b8061102484611b0d565b604051602001611035929190612f8b565b6040516020818303038152906040525b915050919050565b609860003373ffffffffffffffffffffffffffffffffffffffff1673ffffffffffffffffffffffffffffffffffffffff16815260200190815260200160002060009054906101000a900460ff166110d9576040517f08c379a00000000000000000000000000000000000000000000000000000000081526004016110d090613021565b60405180910390fd5b6110e38383611c6e565b8060996000848152602001908152602001600020908051906020019061110a92919061214f565b50505050565b609860003373ffffffffffffffffffffffffffffffffffffffff1673ffffffffffffffffffffffffffffffffffffffff16815260200190815260200160002060009054906101000a900460ff1661119c576040517f08c379a000000000000000000000000000000000000000000000000000000000815260040161119390613021565b60405180910390fd5b8173ffffffffffffffffffffffffffffffffffffffff166108fc829081150290604051600060405180830381858888f193505050501580156111e2573d6000803e3d6000fd5b505050565b609860003373ffffffffffffffffffffffffffffffffffffffff1673ffffffffffffffffffffffffffffffffffffffff16815260200190815260200160002060009054906101000a900460ff16611273576040517f08c379a000000000000000000000000000000000000000000000000000000000815260040161126a90613021565b60405180910390fd5b6000808373ffffffffffffffffffffffffffffffffffffffff163086856040516024016112a293929190613041565b6040516020818303038152906040527f23b872dd000000000000000000000000000000000000000000000000000000007bffffffffffffffffffffffffffffffffffffffffffffffffffffffff19166020820180517bffffffffffffffffffffffffffffffffffffffffffffffffffffffff838183161783525050505060405161132c91906130bf565b6000604051808303816000865af19150503d8060008114611369576040519150601f19603f3d011682016040523d82523d6000602084013e61136e565b606091505b50915091508161137d57600080fd5b60008180602001905181019061139391906130eb565b90508061139f57600080fd5b505050505050565b6000606a60008473ffffffffffffffffffffffffffffffffffffffff1673ffffffffffffffffffffffffffffffffffffffff16815260200190815260200160002060008373ffffffffffffffffffffffffffffffffffffffff1673ffffffffffffffffffffffffffffffffffffffff16815260200190815260200160002060009054906101000a900460ff16905092915050565b60007f01ffc9a7000000000000000000000000000000000000000000000000000000007bffffffffffffffffffffffffffffffffffffffffffffffffffffffff1916827bffffffffffffffffffffffffffffffffffffffffffffffffffffffff1916149050919050565b6114ae81611c8c565b6114ed576040517f08c379a00000000000000000000000000000000000000000000000000000000081526004016114e490612e0b565b60405180910390fd5b50565b600033905090565b816069600083815260200190815260200160002060006101000a81548173ffffffffffffffffffffffffffffffffffffffff021916908373ffffffffffffffffffffffffffffffffffffffff160217905550808273ffffffffffffffffffffffffffffffffffffffff1661156b83610af6565b73ffffffffffffffffffffffffffffffffffffffff167f8c5be1e5ebec7d5bd14f71427d1e84f3dd0314c0f7b2291e5b200ac8c7c3b92560405160405180910390a45050565b6000806115bd83610af6565b90508073ffffffffffffffffffffffffffffffffffffffff168473ffffffffffffffffffffffffffffffffffffffff1614806115ff57506115fe81856113a7565b5b8061163d57508373ffffffffffffffffffffffffffffffffffffffff16611625846106cb565b73ffffffffffffffffffffffffffffffffffffffff16145b91505092915050565b8273ffffffffffffffffffffffffffffffffffffffff1661166682610af6565b73ffffffffffffffffffffffffffffffffffffffff16146116bc576040517f08c379a00000000000000000000000000000000000000000000000000000000081526004016116b39061318a565b60405180910390fd5b600073ffffffffffffffffffffffffffffffffffffffff168273ffffffffffffffffffffffffffffffffffffffff16141561172c576040517f08c379a00000000000000000000000000000000000000000000000000000000081526004016117239061321c565b60405180910390fd5b611737838383611cf8565b6117426000826114f8565b6001606860008573ffffffffffffffffffffffffffffffffffffffff1673ffffffffffffffffffffffffffffffffffffffff1681526020019081526020016000206000828254611792919061326b565b925050819055506001606860008473ffffffffffffffffffffffffffffffffffffffff1673ffffffffffffffffffffffffffffffffffffffff16815260200190815260200160002060008282546117e9919061329f565b92505081905550816067600083815260200190815260200160002060006101000a81548173ffffffffffffffffffffffffffffffffffffffff021916908373ffffffffffffffffffffffffffffffffffffffff160217905550808273ffffffffffffffffffffffffffffffffffffffff168473ffffffffffffffffffffffffffffffffffffffff167fddf252ad1be2c89b69c2b068fc378daa952ba7f163c4a11628f55a4df523b3ef60405160405180910390a46118a8838383611cfd565b505050565b6000808273ffffffffffffffffffffffffffffffffffffffff163b119050919050565b600060019054906101000a900460ff1661191f576040517f08c379a000000000000000000000000000000000000000000000000000000000815260040161191690613367565b60405180910390fd5b6119298282611d02565b5050565b8173ffffffffffffffffffffffffffffffffffffffff168373ffffffffffffffffffffffffffffffffffffffff16141561199c576040517f08c379a0000000000000000000000000000000000000000000000000000000008152600401611993906133d3565b60405180910390fd5b80606a60008573ffffffffffffffffffffffffffffffffffffffff1673ffffffffffffffffffffffffffffffffffffffff16815260200190815260200160002060008473ffffffffffffffffffffffffffffffffffffffff1673ffffffffffffffffffffffffffffffffffffffff16815260200190815260200160002060006101000a81548160ff0219169083151502179055508173ffffffffffffffffffffffffffffffffffffffff168373ffffffffffffffffffffffffffffffffffffffff167f17307eab39ab6107e8899845ad3d59bd9653f200f220920489ca2b5937696c3183604051611a8d91906122a6565b60405180910390a3505050565b611aa5848484611646565b611ab184848484611d83565b611af0576040517f08c379a0000000000000000000000000000000000000000000000000000000008152600401611ae790613465565b60405180910390fd5b50505050565b606060405180602001604052806000815250905090565b60606000821415611b55576040518060400160405280600181526020017f30000000000000000000000000000000000000000000000000000000000000008152509050611c69565b600082905060005b60008214611b87578080611b7090613485565b915050600a82611b8091906134fd565b9150611b5d565b60008167ffffffffffffffff811115611ba357611ba26124b1565b5b6040519080825280601f01601f191660200182016040528015611bd55781602001600182028036833780820191505090505b5090505b60008514611c6257600182611bee919061326b565b9150600a85611bfd919061352e565b6030611c09919061329f565b60f81b818381518110611c1f57611c1e61355f565b5b60200101907effffffffffffffffffffffffffffffffffffffffffffffffffffffffffffff1916908160001a905350600a85611c5b91906134fd565b9450611bd9565b8093505050505b919050565b611c88828260405180602001604052806000815250611f1a565b5050565b60008073ffffffffffffffffffffffffffffffffffffffff166067600084815260200190815260200160002060009054906101000a900473ffffffffffffffffffffffffffffffffffffffff1673ffffffffffffffffffffffffffffffffffffffff1614159050919050565b505050565b505050565b600060019054906101000a900460ff16611d51576040517f08c379a0000000000000000000000000000000000000000000000000000000008152600401611d4890613367565b60405180910390fd5b8160659080519060200190611d6792919061214f565b508060669080519060200190611d7e92919061214f565b505050565b6000611da48473ffffffffffffffffffffffffffffffffffffffff166118ad565b15611f0d578373ffffffffffffffffffffffffffffffffffffffff1663150b7a02611dcd6114f0565b8786866040518563ffffffff1660e01b8152600401611def94939291906135d8565b602060405180830381600087803b158015611e0957600080fd5b505af1925050508015611e3a57506040513d601f19601f82011682018060405250810190611e379190613639565b60015b611ebd573d8060008114611e6a576040519150601f19603f3d011682016040523d82523d6000602084013e611e6f565b606091505b50600081511415611eb5576040517f08c379a0000000000000000000000000000000000000000000000000000000008152600401611eac90613465565b60405180910390fd5b805181602001fd5b63150b7a0260e01b7bffffffffffffffffffffffffffffffffffffffffffffffffffffffff1916817bffffffffffffffffffffffffffffffffffffffffffffffffffffffff191614915050611f12565b600190505b949350505050565b611f248383611f75565b611f316000848484611d83565b611f70576040517f08c379a0000000000000000000000000000000000000000000000000000000008152600401611f6790613465565b60405180910390fd5b505050565b600073ffffffffffffffffffffffffffffffffffffffff168273ffffffffffffffffffffffffffffffffffffffff161415611fe5576040517f08c379a0000000000000000000000000000000000000000000000000000000008152600401611fdc906136b2565b60405180910390fd5b611fee81611c8c565b1561202e576040517f08c379a00000000000000000000000000000000000000000000000000000000081526004016120259061371e565b60405180910390fd5b61203a60008383611cf8565b6001606860008473ffffffffffffffffffffffffffffffffffffffff1673ffffffffffffffffffffffffffffffffffffffff168152602001908152602001600020600082825461208a919061329f565b92505081905550816067600083815260200190815260200160002060006101000a81548173ffffffffffffffffffffffffffffffffffffffff021916908373ffffffffffffffffffffffffffffffffffffffff160217905550808273ffffffffffffffffffffffffffffffffffffffff16600073ffffffffffffffffffffffffffffffffffffffff167fddf252ad1be2c89b69c2b068fc378daa952ba7f163c4a11628f55a4df523b3ef60405160405180910390a461214b60008383611cfd565b5050565b82805461215b90612a46565b90600052602060002090601f01602090048101928261217d57600085556121c4565b82601f1061219657805160ff19168380011785556121c4565b828001600101855582156121c4579182015b828111156121c35782518255916020019190600101906121a8565b5b5090506121d191906121d5565b5090565b5b808211156121ee5760008160009055506001016121d6565b5090565b6000604051905090565b600080fd5b600080fd5b60007fffffffff0000000000000000000000000000000000000000000000000000000082169050919050565b61223b81612206565b811461224657600080fd5b50565b60008135905061225881612232565b92915050565b600060208284031215612274576122736121fc565b5b600061228284828501612249565b91505092915050565b60008115159050919050565b6122a08161228b565b82525050565b60006020820190506122bb6000830184612297565b92915050565b600081519050919050565b600082825260208201905092915050565b60005b838110156122fb5780820151818401526020810190506122e0565b8381111561230a576000848401525b50505050565b6000601f19601f8301169050919050565b600061232c826122c1565b61233681856122cc565b93506123468185602086016122dd565b61234f81612310565b840191505092915050565b600060208201905081810360008301526123748184612321565b905092915050565b6000819050919050565b61238f8161237c565b811461239a57600080fd5b50565b6000813590506123ac81612386565b92915050565b6000602082840312156123c8576123c76121fc565b5b60006123d68482850161239d565b91505092915050565b600073ffffffffffffffffffffffffffffffffffffffff82169050919050565b600061240a826123df565b9050919050565b61241a816123ff565b82525050565b60006020820190506124356000830184612411565b92915050565b612444816123ff565b811461244f57600080fd5b50565b6000813590506124618161243b565b92915050565b6000806040838503121561247e5761247d6121fc565b5b600061248c85828601612452565b925050602061249d8582860161239d565b9150509250929050565b600080fd5b600080fd5b7f4e487b7100000000000000000000000000000000000000000000000000000000600052604160045260246000fd5b6124e982612310565b810181811067ffffffffffffffff82111715612508576125076124b1565b5b80604052505050565b600061251b6121f2565b905061252782826124e0565b919050565b600067ffffffffffffffff821115612547576125466124b1565b5b61255082612310565b9050602081019050919050565b82818337600083830152505050565b600061257f61257a8461252c565b612511565b90508281526020810184848401111561259b5761259a6124ac565b5b6125a684828561255d565b509392505050565b600082601f8301126125c3576125c26124a7565b5b81356125d384826020860161256c565b91505092915050565b600080604083850312156125f3576125f26121fc565b5b60006126018582860161239d565b925050602083013567ffffffffffffffff81111561262257612621612201565b5b61262e858286016125ae565b9150509250929050565b600080600060608486031215612651576126506121fc565b5b600061265f86828701612452565b935050602061267086828701612452565b92505060406126818682870161239d565b9150509250925092565b6000602082840312156126a1576126a06121fc565b5b60006126af84828501612452565b91505092915050565b600080604083850312156126cf576126ce6121fc565b5b600083013567ffffffffffffffff8111156126ed576126ec612201565b5b6126f9858286016125ae565b925050602083013567ffffffffffffffff81111561271a57612719612201565b5b612726858286016125ae565b9150509250929050565b6127398161237c565b82525050565b60006020820190506127546000830184612730565b92915050565b6127638161228b565b811461276e57600080fd5b50565b6000813590506127808161275a565b92915050565b6000806040838503121561279d5761279c6121fc565b5b60006127ab85828601612452565b92505060206127bc85828601612771565b9150509250929050565b600067ffffffffffffffff8211156127e1576127e06124b1565b5b6127ea82612310565b9050602081019050919050565b600061280a612805846127c6565b612511565b905082815260208101848484011115612826576128256124ac565b5b61283184828561255d565b509392505050565b600082601f83011261284e5761284d6124a7565b5b813561285e8482602086016127f7565b91505092915050565b60008060008060808587031215612881576128806121fc565b5b600061288f87828801612452565b94505060206128a087828801612452565b93505060406128b18782880161239d565b925050606085013567ffffffffffffffff8111156128d2576128d1612201565b5b6128de87828801612839565b91505092959194509250565b600080600060608486031215612903576129026121fc565b5b600061291186828701612452565b93505060206129228682870161239d565b925050604084013567ffffffffffffffff81111561294357612942612201565b5b61294f868287016125ae565b9150509250925092565b6000612964826123df565b9050919050565b61297481612959565b811461297f57600080fd5b50565b6000813590506129918161296b565b92915050565b600080604083850312156129ae576129ad6121fc565b5b60006129bc85828601612982565b92505060206129cd8582860161239d565b9150509250929050565b600080604083850312156129ee576129ed6121fc565b5b60006129fc85828601612452565b9250506020612a0d85828601612452565b9150509250929050565b7f4e487b7100000000000000000000000000000000000000000000000000000000600052602260045260246000fd5b60006002820490506001821680612a5e57607f821691505b60208210811415612a7257612a71612a17565b5b50919050565b7f4552433732313a20617070726f76616c20746f2063757272656e74206f776e6560008201527f7200000000000000000000000000000000000000000000000000000000000000602082015250565b6000612ad46021836122cc565b9150612adf82612a78565b604082019050919050565b60006020820190508181036000830152612b0381612ac7565b9050919050565b7f4552433732313a20617070726f76652063616c6c6572206973206e6f7420746f60008201527f6b656e206f776e6572206e6f7220617070726f76656420666f7220616c6c0000602082015250565b6000612b66603e836122cc565b9150612b7182612b0a565b604082019050919050565b60006020820190508181036000830152612b9581612b59565b9050919050565b7f53656e64657220646f65736e27742068617665206f776e657273686970206f6660008201527f20546f6b656e2049440000000000000000000000000000000000000000000000602082015250565b6000612bf86029836122cc565b9150612c0382612b9c565b604082019050919050565b60006020820190508181036000830152612c2781612beb565b9050919050565b7f4552433732313a2063616c6c6572206973206e6f7420746f6b656e206f776e6560008201527f72206e6f7220617070726f766564000000000000000000000000000000000000602082015250565b6000612c8a602e836122cc565b9150612c9582612c2e565b604082019050919050565b60006020820190508181036000830152612cb981612c7d565b9050919050565b7f496e697469616c697a61626c653a20636f6e747261637420697320616c72656160008201527f647920696e697469616c697a6564000000000000000000000000000000000000602082015250565b6000612d1c602e836122cc565b9150612d2782612cc0565b604082019050919050565b60006020820190508181036000830152612d4b81612d0f565b9050919050565b6000819050919050565b600060ff82169050919050565b6000819050919050565b6000612d8e612d89612d8484612d52565b612d69565b612d5c565b9050919050565b612d9e81612d73565b82525050565b6000602082019050612db96000830184612d95565b92915050565b7f4552433732313a20696e76616c696420746f6b656e2049440000000000000000600082015250565b6000612df56018836122cc565b9150612e0082612dbf565b602082019050919050565b60006020820190508181036000830152612e2481612de8565b9050919050565b7f4f6e6c7920636f6e7472616374206465706c6f7965722063616e2063616c6c2060008201527f746869732066756e6374696f6e00000000000000000000000000000000000000602082015250565b6000612e87602d836122cc565b9150612e9282612e2b565b604082019050919050565b60006020820190508181036000830152612eb681612e7a565b9050919050565b7f4552433732313a2061646472657373207a65726f206973206e6f74206120766160008201527f6c6964206f776e65720000000000000000000000000000000000000000000000602082015250565b6000612f196029836122cc565b9150612f2482612ebd565b604082019050919050565b60006020820190508181036000830152612f4881612f0c565b9050919050565b600081905092915050565b6000612f65826122c1565b612f6f8185612f4f565b9350612f7f8185602086016122dd565b80840191505092915050565b6000612f978285612f5a565b9150612fa38284612f5a565b91508190509392505050565b7f4f6e6c7920616e206f776e65722063616e2063616c6c20746869732066756e6360008201527f74696f6e00000000000000000000000000000000000000000000000000000000602082015250565b600061300b6024836122cc565b915061301682612faf565b604082019050919050565b6000602082019050818103600083015261303a81612ffe565b9050919050565b60006060820190506130566000830186612411565b6130636020830185612411565b6130706040830184612730565b949350505050565b600081519050919050565b600081905092915050565b600061309982613078565b6130a38185613083565b93506130b38185602086016122dd565b80840191505092915050565b60006130cb828461308e565b915081905092915050565b6000815190506130e58161275a565b92915050565b600060208284031215613101576131006121fc565b5b600061310f848285016130d6565b91505092915050565b7f4552433732313a207472616e736665722066726f6d20696e636f72726563742060008201527f6f776e6572000000000000000000000000000000000000000000000000000000602082015250565b60006131746025836122cc565b915061317f82613118565b604082019050919050565b600060208201905081810360008301526131a381613167565b9050919050565b7f4552433732313a207472616e7366657220746f20746865207a65726f2061646460008201527f7265737300000000000000000000000000000000000000000000000000000000602082015250565b60006132066024836122cc565b9150613211826131aa565b604082019050919050565b60006020820190508181036000830152613235816131f9565b9050919050565b7f4e487b7100000000000000000000000000000000000000000000000000000000600052601160045260246000fd5b60006132768261237c565b91506132818361237c565b9250828210156132945761329361323c565b5b828203905092915050565b60006132aa8261237c565b91506132b58361237c565b9250827fffffffffffffffffffffffffffffffffffffffffffffffffffffffffffffffff038211156132ea576132e961323c565b5b828201905092915050565b7f496e697469616c697a61626c653a20636f6e7472616374206973206e6f74206960008201527f6e697469616c697a696e67000000000000000000000000000000000000000000602082015250565b6000613351602b836122cc565b915061335c826132f5565b604082019050919050565b6000602082019050818103600083015261338081613344565b9050919050565b7f4552433732313a20617070726f766520746f2063616c6c657200000000000000600082015250565b60006133bd6019836122cc565b91506133c882613387565b602082019050919050565b600060208201905081810360008301526133ec816133b0565b9050919050565b7f4552433732313a207472616e7366657220746f206e6f6e20455243373231526560008201527f63656976657220696d706c656d656e7465720000000000000000000000000000602082015250565b600061344f6032836122cc565b915061345a826133f3565b604082019050919050565b6000602082019050818103600083015261347e81613442565b9050919050565b60006134908261237c565b91507fffffffffffffffffffffffffffffffffffffffffffffffffffffffffffffffff8214156134c3576134c261323c565b5b600182019050919050565b7f4e487b7100000000000000000000000000000000000000000000000000000000600052601260045260246000fd5b60006135088261237c565b91506135138361237c565b925082613523576135226134ce565b5b828204905092915050565b60006135398261237c565b91506135448361237c565b925082613554576135536134ce565b5b828206905092915050565b7f4e487b7100000000000000000000000000000000000000000000000000000000600052603260045260246000fd5b600082825260208201905092915050565b60006135aa82613078565b6135b4818561358e565b93506135c48185602086016122dd565b6135cd81612310565b840191505092915050565b60006080820190506135ed6000830187612411565b6135fa6020830186612411565b6136076040830185612730565b8181036060830152613619818461359f565b905095945050505050565b60008151905061363381612232565b92915050565b60006020828403121561364f5761364e6121fc565b5b600061365d84828501613624565b91505092915050565b7f4552433732313a206d696e7420746f20746865207a65726f2061646472657373600082015250565b600061369c6020836122cc565b91506136a782613666565b602082019050919050565b600060208201905081810360008301526136cb8161368f565b9050919050565b7f4552433732313a20746f6b656e20616c7265616479206d696e74656400000000600082015250565b6000613708601c836122cc565b9150613713826136d2565b602082019050919050565b60006020820190508181036000830152613737816136fb565b905091905056fea2646970667358221220554eb3928785f2e07289bf630aa76be1bbf121019fc057b198dbf45ce16d89c264736f6c63430008090033",
  "linkReferences": {},
  "deployedLinkReferences": {}
}